{
	"test/Contract_test.sol": {
		"testSuite": {
			"abi": [
				{
					"inputs": [],
					"name": "beforeAll",
					"outputs": [],
					"stateMutability": "nonpayable",
					"type": "function"
				}
			],
			"devdoc": {
				"kind": "dev",
				"methods": {},
				"version": 1
			},
			"evm": {
				"assembly": "    /* \"test/Contract_test.sol\":471:1855  contract testSuite {... */\n  mstore(0x40, 0x80)\n  callvalue\n  dup1\n  iszero\n  tag_1\n  jumpi\n  0x00\n  dup1\n  revert\ntag_1:\n  pop\n  dataSize(sub_0)\n  dup1\n  dataOffset(sub_0)\n  0x00\n  codecopy\n  0x00\n  return\nstop\n\nsub_0: assembly {\n        /* \"test/Contract_test.sol\":471:1855  contract testSuite {... */\n      mstore(0x40, 0x80)\n      callvalue\n      dup1\n      iszero\n      tag_1\n      jumpi\n      0x00\n      dup1\n      revert\n    tag_1:\n      pop\n      jumpi(tag_2, lt(calldatasize, 0x04))\n      shr(0xe0, calldataload(0x00))\n      dup1\n      0x7fea0d4b\n      eq\n      tag_3\n      jumpi\n    tag_2:\n      0x00\n      dup1\n      revert\n        /* \"test/Contract_test.sol\":633:768  function beforeAll() public {... */\n    tag_3:\n      tag_4\n      tag_5\n      jump\t// in\n    tag_4:\n      stop\n    tag_5:\n        /* \"test/Contract_test.sol\":705:711  Assert */\n      linkerSymbol(\"acbfb1c35000d78352310b16a054a6b1066124b9c6f054b10c085f549bff80c6\")\n        /* \"test/Contract_test.sol\":705:717  Assert.equal */\n      0xabcd7960\n        /* \"test/Contract_test.sol\":723:724  1 */\n      0x01\n        /* \"test/Contract_test.sol\":732:733  1 */\n      dup1\n        /* \"test/Contract_test.sol\":705:761  Assert.equal(uint(1), uint(1), \"1 should be equal to 1\") */\n      mload(0x40)\n      dup4\n      0xffffffff\n      and\n      0xe0\n      shl\n      dup2\n      mstore\n      0x04\n      add\n      tag_7\n      swap3\n      swap2\n      swap1\n      tag_8\n      jump\t// in\n    tag_7:\n      0x20\n      mload(0x40)\n      dup1\n      dup4\n      sub\n      dup2\n      dup7\n      dup1\n      extcodesize\n      iszero\n      dup1\n      iszero\n      tag_9\n      jumpi\n      0x00\n      dup1\n      revert\n    tag_9:\n      pop\n      gas\n      delegatecall\n      iszero\n      dup1\n      iszero\n      tag_11\n      jumpi\n      returndatasize\n      0x00\n      dup1\n      returndatacopy\n      revert(0x00, returndatasize)\n    tag_11:\n      pop\n      pop\n      pop\n      pop\n      mload(0x40)\n      returndatasize\n      not(0x1f)\n      0x1f\n      dup3\n      add\n      and\n      dup3\n      add\n      dup1\n      0x40\n      mstore\n      pop\n      dup2\n      add\n      swap1\n      tag_12\n      swap2\n      swap1\n      tag_13\n      jump\t// in\n    tag_12:\n      pop\n        /* \"test/Contract_test.sol\":633:768  function beforeAll() public {... */\n      jump\t// out\n        /* \"#utility.yul\":7:144   */\n    tag_15:\n        /* \"#utility.yul\":61:66   */\n      0x00\n        /* \"#utility.yul\":92:98   */\n      dup2\n        /* \"#utility.yul\":86:99   */\n      mload\n        /* \"#utility.yul\":77:99   */\n      swap1\n      pop\n        /* \"#utility.yul\":108:138   */\n      tag_17\n        /* \"#utility.yul\":132:137   */\n      dup2\n        /* \"#utility.yul\":108:138   */\n      tag_18\n      jump\t// in\n    tag_17:\n        /* \"#utility.yul\":7:144   */\n      swap3\n      swap2\n      pop\n      pop\n      jump\t// out\n        /* \"#utility.yul\":150:495   */\n    tag_13:\n        /* \"#utility.yul\":217:223   */\n      0x00\n        /* \"#utility.yul\":266:268   */\n      0x20\n        /* \"#utility.yul\":254:263   */\n      dup3\n        /* \"#utility.yul\":245:252   */\n      dup5\n        /* \"#utility.yul\":241:264   */\n      sub\n        /* \"#utility.yul\":237:269   */\n      slt\n        /* \"#utility.yul\":234:353   */\n      iszero\n      tag_20\n      jumpi\n        /* \"#utility.yul\":272:351   */\n      tag_21\n      tag_22\n      jump\t// in\n    tag_21:\n        /* \"#utility.yul\":234:353   */\n    tag_20:\n        /* \"#utility.yul\":392:393   */\n      0x00\n        /* \"#utility.yul\":417:478   */\n      tag_23\n        /* \"#utility.yul\":470:477   */\n      dup5\n        /* \"#utility.yul\":461:467   */\n      dup3\n        /* \"#utility.yul\":450:459   */\n      dup6\n        /* \"#utility.yul\":446:468   */\n      add\n        /* \"#utility.yul\":417:478   */\n      tag_15\n      jump\t// in\n    tag_23:\n        /* \"#utility.yul\":407:478   */\n      swap2\n      pop\n        /* \"#utility.yul\":363:488   */\n      pop\n        /* \"#utility.yul\":150:495   */\n      swap3\n      swap2\n      pop\n      pop\n      jump\t// out\n        /* \"#utility.yul\":501:883   */\n    tag_24:\n        /* \"#utility.yul\":651:654   */\n      0x00\n        /* \"#utility.yul\":672:747   */\n      tag_26\n        /* \"#utility.yul\":744:746   */\n      0x16\n        /* \"#utility.yul\":739:742   */\n      dup4\n        /* \"#utility.yul\":672:747   */\n      tag_27\n      jump\t// in\n    tag_26:\n        /* \"#utility.yul\":665:747   */\n      swap2\n      pop\n        /* \"#utility.yul\":756:849   */\n      tag_28\n        /* \"#utility.yul\":845:848   */\n      dup3\n        /* \"#utility.yul\":756:849   */\n      tag_29\n      jump\t// in\n    tag_28:\n        /* \"#utility.yul\":874:876   */\n      0x20\n        /* \"#utility.yul\":869:872   */\n      dup3\n        /* \"#utility.yul\":865:877   */\n      add\n        /* \"#utility.yul\":858:877   */\n      swap1\n      pop\n        /* \"#utility.yul\":501:883   */\n      swap2\n      swap1\n      pop\n      jump\t// out\n        /* \"#utility.yul\":889:1015   */\n    tag_30:\n        /* \"#utility.yul\":984:1008   */\n      tag_32\n        /* \"#utility.yul\":1002:1007   */\n      dup2\n        /* \"#utility.yul\":984:1008   */\n      tag_33\n      jump\t// in\n    tag_32:\n        /* \"#utility.yul\":979:982   */\n      dup3\n        /* \"#utility.yul\":972:1009   */\n      mstore\n        /* \"#utility.yul\":889:1015   */\n      pop\n      pop\n      jump\t// out\n        /* \"#utility.yul\":1021:1692   */\n    tag_8:\n        /* \"#utility.yul\":1251:1255   */\n      0x00\n        /* \"#utility.yul\":1289:1291   */\n      0x60\n        /* \"#utility.yul\":1278:1287   */\n      dup3\n        /* \"#utility.yul\":1274:1292   */\n      add\n        /* \"#utility.yul\":1266:1292   */\n      swap1\n      pop\n        /* \"#utility.yul\":1302:1381   */\n      tag_35\n        /* \"#utility.yul\":1378:1379   */\n      0x00\n        /* \"#utility.yul\":1367:1376   */\n      dup4\n        /* \"#utility.yul\":1363:1380   */\n      add\n        /* \"#utility.yul\":1354:1360   */\n      dup6\n        /* \"#utility.yul\":1302:1381   */\n      tag_30\n      jump\t// in\n    tag_35:\n        /* \"#utility.yul\":1391:1471   */\n      tag_36\n        /* \"#utility.yul\":1467:1469   */\n      0x20\n        /* \"#utility.yul\":1456:1465   */\n      dup4\n        /* \"#utility.yul\":1452:1470   */\n      add\n        /* \"#utility.yul\":1443:1449   */\n      dup5\n        /* \"#utility.yul\":1391:1471   */\n      tag_30\n      jump\t// in\n    tag_36:\n        /* \"#utility.yul\":1518:1527   */\n      dup2\n        /* \"#utility.yul\":1512:1516   */\n      dup2\n        /* \"#utility.yul\":1508:1528   */\n      sub\n        /* \"#utility.yul\":1503:1505   */\n      0x40\n        /* \"#utility.yul\":1492:1501   */\n      dup4\n        /* \"#utility.yul\":1488:1506   */\n      add\n        /* \"#utility.yul\":1481:1529   */\n      mstore\n        /* \"#utility.yul\":1546:1685   */\n      tag_37\n        /* \"#utility.yul\":1680:1684   */\n      dup2\n        /* \"#utility.yul\":1546:1685   */\n      tag_24\n      jump\t// in\n    tag_37:\n        /* \"#utility.yul\":1538:1685   */\n      swap1\n      pop\n        /* \"#utility.yul\":1021:1692   */\n      swap4\n      swap3\n      pop\n      pop\n      pop\n      jump\t// out\n        /* \"#utility.yul\":1779:1956   */\n    tag_27:\n        /* \"#utility.yul\":1871:1882   */\n      0x00\n        /* \"#utility.yul\":1905:1911   */\n      dup3\n        /* \"#utility.yul\":1900:1903   */\n      dup3\n        /* \"#utility.yul\":1893:1912   */\n      mstore\n        /* \"#utility.yul\":1945:1949   */\n      0x20\n        /* \"#utility.yul\":1940:1943   */\n      dup3\n        /* \"#utility.yul\":1936:1950   */\n      add\n        /* \"#utility.yul\":1921:1950   */\n      swap1\n      pop\n        /* \"#utility.yul\":1779:1956   */\n      swap3\n      swap2\n      pop\n      pop\n      jump\t// out\n        /* \"#utility.yul\":1962:2052   */\n    tag_41:\n        /* \"#utility.yul\":1996:2003   */\n      0x00\n        /* \"#utility.yul\":2039:2044   */\n      dup2\n        /* \"#utility.yul\":2032:2045   */\n      iszero\n        /* \"#utility.yul\":2025:2046   */\n      iszero\n        /* \"#utility.yul\":2014:2046   */\n      swap1\n      pop\n        /* \"#utility.yul\":1962:2052   */\n      swap2\n      swap1\n      pop\n      jump\t// out\n        /* \"#utility.yul\":2058:2135   */\n    tag_33:\n        /* \"#utility.yul\":2095:2102   */\n      0x00\n        /* \"#utility.yul\":2124:2129   */\n      dup2\n        /* \"#utility.yul\":2113:2129   */\n      swap1\n      pop\n        /* \"#utility.yul\":2058:2135   */\n      swap2\n      swap1\n      pop\n      jump\t// out\n        /* \"#utility.yul\":2264:2381   */\n    tag_22:\n        /* \"#utility.yul\":2373:2374   */\n      0x00\n        /* \"#utility.yul\":2370:2371   */\n      dup1\n        /* \"#utility.yul\":2363:2375   */\n      revert\n        /* \"#utility.yul\":2387:2559   */\n    tag_29:\n        /* \"#utility.yul\":2527:2551   */\n      0x312073686f756c6420626520657175616c20746f203100000000000000000000\n        /* \"#utility.yul\":2523:2524   */\n      0x00\n        /* \"#utility.yul\":2515:2521   */\n      dup3\n        /* \"#utility.yul\":2511:2525   */\n      add\n        /* \"#utility.yul\":2504:2552   */\n      mstore\n        /* \"#utility.yul\":2387:2559   */\n      pop\n      jump\t// out\n        /* \"#utility.yul\":2565:2681   */\n    tag_18:\n        /* \"#utility.yul\":2635:2656   */\n      tag_49\n        /* \"#utility.yul\":2650:2655   */\n      dup2\n        /* \"#utility.yul\":2635:2656   */\n      tag_41\n      jump\t// in\n    tag_49:\n        /* \"#utility.yul\":2628:2633   */\n      dup2\n        /* \"#utility.yul\":2625:2657   */\n      eq\n        /* \"#utility.yul\":2615:2675   */\n      tag_50\n      jumpi\n        /* \"#utility.yul\":2671:2672   */\n      0x00\n        /* \"#utility.yul\":2668:2669   */\n      dup1\n        /* \"#utility.yul\":2661:2673   */\n      revert\n        /* \"#utility.yul\":2615:2675   */\n    tag_50:\n        /* \"#utility.yul\":2565:2681   */\n      pop\n      jump\t// out\n\n    auxdata: 0xa26469706673582212203f8de3a36e8636a0c907a2e1ded5455cf44910d08b129540644838a180e1782c64736f6c63430008070033\n}\n",
				"bytecode": {
					"linkReferences": {
						"remix_tests.sol": {
							"Assert": [
								{
									"length": 20,
									"start": 92
								}
							]
						}
					},
					"object": "608060405234801561001057600080fd5b50610219806100206000396000f3fe608060405234801561001057600080fd5b506004361061002b5760003560e01c80637fea0d4b14610030575b600080fd5b61003861003a565b005b73__$acbfb1c35000d78352310b16a054a6b106$__63abcd79606001806040518363ffffffff1660e01b815260040161007492919061013b565b60206040518083038186803b15801561008c57600080fd5b505af41580156100a0573d6000803e3d6000fd5b505050506040513d601f19601f820116820180604052508101906100c491906100dc565b50565b6000815190506100d6816101cc565b92915050565b6000602082840312156100f2576100f161019e565b5b6000610100848285016100c7565b91505092915050565b6000610116601683610177565b9150610121826101a3565b602082019050919050565b61013581610194565b82525050565b6000606082019050610150600083018561012c565b61015d602083018461012c565b818103604083015261016e81610109565b90509392505050565b600082825260208201905092915050565b60008115159050919050565b6000819050919050565b600080fd5b7f312073686f756c6420626520657175616c20746f203100000000000000000000600082015250565b6101d581610188565b81146101e057600080fd5b5056fea26469706673582212203f8de3a36e8636a0c907a2e1ded5455cf44910d08b129540644838a180e1782c64736f6c63430008070033",
					"opcodes": "PUSH1 0x80 PUSH1 0x40 MSTORE CALLVALUE DUP1 ISZERO PUSH2 0x10 JUMPI PUSH1 0x0 DUP1 REVERT JUMPDEST POP PUSH2 0x219 DUP1 PUSH2 0x20 PUSH1 0x0 CODECOPY PUSH1 0x0 RETURN INVALID PUSH1 0x80 PUSH1 0x40 MSTORE CALLVALUE DUP1 ISZERO PUSH2 0x10 JUMPI PUSH1 0x0 DUP1 REVERT JUMPDEST POP PUSH1 0x4 CALLDATASIZE LT PUSH2 0x2B JUMPI PUSH1 0x0 CALLDATALOAD PUSH1 0xE0 SHR DUP1 PUSH4 0x7FEA0D4B EQ PUSH2 0x30 JUMPI JUMPDEST PUSH1 0x0 DUP1 REVERT JUMPDEST PUSH2 0x38 PUSH2 0x3A JUMP JUMPDEST STOP JUMPDEST PUSH20 0x0 PUSH4 0xABCD7960 PUSH1 0x1 DUP1 PUSH1 0x40 MLOAD DUP4 PUSH4 0xFFFFFFFF AND PUSH1 0xE0 SHL DUP2 MSTORE PUSH1 0x4 ADD PUSH2 0x74 SWAP3 SWAP2 SWAP1 PUSH2 0x13B JUMP JUMPDEST PUSH1 0x20 PUSH1 0x40 MLOAD DUP1 DUP4 SUB DUP2 DUP7 DUP1 EXTCODESIZE ISZERO DUP1 ISZERO PUSH2 0x8C JUMPI PUSH1 0x0 DUP1 REVERT JUMPDEST POP GAS DELEGATECALL ISZERO DUP1 ISZERO PUSH2 0xA0 JUMPI RETURNDATASIZE PUSH1 0x0 DUP1 RETURNDATACOPY RETURNDATASIZE PUSH1 0x0 REVERT JUMPDEST POP POP POP POP PUSH1 0x40 MLOAD RETURNDATASIZE PUSH1 0x1F NOT PUSH1 0x1F DUP3 ADD AND DUP3 ADD DUP1 PUSH1 0x40 MSTORE POP DUP2 ADD SWAP1 PUSH2 0xC4 SWAP2 SWAP1 PUSH2 0xDC JUMP JUMPDEST POP JUMP JUMPDEST PUSH1 0x0 DUP2 MLOAD SWAP1 POP PUSH2 0xD6 DUP2 PUSH2 0x1CC JUMP JUMPDEST SWAP3 SWAP2 POP POP JUMP JUMPDEST PUSH1 0x0 PUSH1 0x20 DUP3 DUP5 SUB SLT ISZERO PUSH2 0xF2 JUMPI PUSH2 0xF1 PUSH2 0x19E JUMP JUMPDEST JUMPDEST PUSH1 0x0 PUSH2 0x100 DUP5 DUP3 DUP6 ADD PUSH2 0xC7 JUMP JUMPDEST SWAP2 POP POP SWAP3 SWAP2 POP POP JUMP JUMPDEST PUSH1 0x0 PUSH2 0x116 PUSH1 0x16 DUP4 PUSH2 0x177 JUMP JUMPDEST SWAP2 POP PUSH2 0x121 DUP3 PUSH2 0x1A3 JUMP JUMPDEST PUSH1 0x20 DUP3 ADD SWAP1 POP SWAP2 SWAP1 POP JUMP JUMPDEST PUSH2 0x135 DUP2 PUSH2 0x194 JUMP JUMPDEST DUP3 MSTORE POP POP JUMP JUMPDEST PUSH1 0x0 PUSH1 0x60 DUP3 ADD SWAP1 POP PUSH2 0x150 PUSH1 0x0 DUP4 ADD DUP6 PUSH2 0x12C JUMP JUMPDEST PUSH2 0x15D PUSH1 0x20 DUP4 ADD DUP5 PUSH2 0x12C JUMP JUMPDEST DUP2 DUP2 SUB PUSH1 0x40 DUP4 ADD MSTORE PUSH2 0x16E DUP2 PUSH2 0x109 JUMP JUMPDEST SWAP1 POP SWAP4 SWAP3 POP POP POP JUMP JUMPDEST PUSH1 0x0 DUP3 DUP3 MSTORE PUSH1 0x20 DUP3 ADD SWAP1 POP SWAP3 SWAP2 POP POP JUMP JUMPDEST PUSH1 0x0 DUP2 ISZERO ISZERO SWAP1 POP SWAP2 SWAP1 POP JUMP JUMPDEST PUSH1 0x0 DUP2 SWAP1 POP SWAP2 SWAP1 POP JUMP JUMPDEST PUSH1 0x0 DUP1 REVERT JUMPDEST PUSH32 0x312073686F756C6420626520657175616C20746F203100000000000000000000 PUSH1 0x0 DUP3 ADD MSTORE POP JUMP JUMPDEST PUSH2 0x1D5 DUP2 PUSH2 0x188 JUMP JUMPDEST DUP2 EQ PUSH2 0x1E0 JUMPI PUSH1 0x0 DUP1 REVERT JUMPDEST POP JUMP INVALID LOG2 PUSH5 0x6970667358 0x22 SLT KECCAK256 EXTCODEHASH DUP14 0xE3 LOG3 PUSH15 0x8636A0C907A2E1DED5455CF44910D0 DUP12 SLT SWAP6 BLOCKHASH PUSH5 0x4838A180E1 PUSH25 0x2C64736F6C6343000807003300000000000000000000000000 "
				},
				"gasEstimates": {
					"creation": {
						"codeDepositCost": "107400",
						"executionCost": "153",
						"totalCost": "107553"
					},
					"external": {
						"beforeAll()": "infinite"
					}
				},
				"methodIdentifiers": {
					"beforeAll()": "7fea0d4b"
				}
			},
			"storageLayout": {
				"storage": [],
				"types": null
			},
			"userdoc": {
				"kind": "user",
				"methods": {
					"beforeAll()": {
						"notice": "'beforeAll' runs before all other tests More special functions are: 'beforeEach', 'beforeAll', 'afterEach' & 'afterAll'"
					}
				},
				"version": 1
			}
		}
	}
}