{
  "contractName": "ERC20Token",
  "abi": [
    {
      "inputs": [
        {
          "internalType": "address",
          "name": "_address",
          "type": "address"
        }
      ],
      "stateMutability": "nonpayable",
      "type": "constructor"
    },
    {
      "anonymous": false,
      "inputs": [
        {
          "indexed": true,
          "internalType": "address",
          "name": "owner",
          "type": "address"
        },
        {
          "indexed": true,
          "internalType": "address",
          "name": "spender",
          "type": "address"
        },
        {
          "indexed": false,
          "internalType": "uint256",
          "name": "value",
          "type": "uint256"
        }
      ],
      "name": "Approval",
      "type": "event"
    },
    {
      "anonymous": false,
      "inputs": [
        {
          "indexed": true,
          "internalType": "address",
          "name": "from",
          "type": "address"
        },
        {
          "indexed": true,
          "internalType": "address",
          "name": "to",
          "type": "address"
        },
        {
          "indexed": false,
          "internalType": "uint256",
          "name": "value",
          "type": "uint256"
        }
      ],
      "name": "Transfer",
      "type": "event"
    },
    {
      "inputs": [
        {
          "internalType": "address",
          "name": "owner",
          "type": "address"
        },
        {
          "internalType": "address",
          "name": "spender",
          "type": "address"
        }
      ],
      "name": "allowance",
      "outputs": [
        {
          "internalType": "uint256",
          "name": "",
          "type": "uint256"
        }
      ],
      "stateMutability": "view",
      "type": "function"
    },
    {
      "inputs": [
        {
          "internalType": "address",
          "name": "spender",
          "type": "address"
        },
        {
          "internalType": "uint256",
          "name": "amount",
          "type": "uint256"
        }
      ],
      "name": "approve",
      "outputs": [
        {
          "internalType": "bool",
          "name": "",
          "type": "bool"
        }
      ],
      "stateMutability": "nonpayable",
      "type": "function"
    },
    {
      "inputs": [
        {
          "internalType": "address",
          "name": "account",
          "type": "address"
        }
      ],
      "name": "balanceOf",
      "outputs": [
        {
          "internalType": "uint256",
          "name": "",
          "type": "uint256"
        }
      ],
      "stateMutability": "view",
      "type": "function"
    },
    {
      "inputs": [],
      "name": "decimals",
      "outputs": [
        {
          "internalType": "uint8",
          "name": "",
          "type": "uint8"
        }
      ],
      "stateMutability": "view",
      "type": "function"
    },
    {
      "inputs": [
        {
          "internalType": "address",
          "name": "spender",
          "type": "address"
        },
        {
          "internalType": "uint256",
          "name": "subtractedValue",
          "type": "uint256"
        }
      ],
      "name": "decreaseAllowance",
      "outputs": [
        {
          "internalType": "bool",
          "name": "",
          "type": "bool"
        }
      ],
      "stateMutability": "nonpayable",
      "type": "function"
    },
    {
      "inputs": [
        {
          "internalType": "address",
          "name": "spender",
          "type": "address"
        },
        {
          "internalType": "uint256",
          "name": "addedValue",
          "type": "uint256"
        }
      ],
      "name": "increaseAllowance",
      "outputs": [
        {
          "internalType": "bool",
          "name": "",
          "type": "bool"
        }
      ],
      "stateMutability": "nonpayable",
      "type": "function"
    },
    {
      "inputs": [],
      "name": "name",
      "outputs": [
        {
          "internalType": "string",
          "name": "",
          "type": "string"
        }
      ],
      "stateMutability": "view",
      "type": "function"
    },
    {
      "inputs": [],
      "name": "symbol",
      "outputs": [
        {
          "internalType": "string",
          "name": "",
          "type": "string"
        }
      ],
      "stateMutability": "view",
      "type": "function"
    },
    {
      "inputs": [],
      "name": "totalSupply",
      "outputs": [
        {
          "internalType": "uint256",
          "name": "",
          "type": "uint256"
        }
      ],
      "stateMutability": "view",
      "type": "function"
    },
    {
      "inputs": [
        {
          "internalType": "address",
          "name": "to",
          "type": "address"
        },
        {
          "internalType": "uint256",
          "name": "amount",
          "type": "uint256"
        }
      ],
      "name": "transfer",
      "outputs": [
        {
          "internalType": "bool",
          "name": "",
          "type": "bool"
        }
      ],
      "stateMutability": "nonpayable",
      "type": "function"
    },
    {
      "inputs": [
        {
          "internalType": "address",
          "name": "from",
          "type": "address"
        },
        {
          "internalType": "address",
          "name": "to",
          "type": "address"
        },
        {
          "internalType": "uint256",
          "name": "amount",
          "type": "uint256"
        }
      ],
      "name": "transferFrom",
      "outputs": [
        {
          "internalType": "bool",
          "name": "",
          "type": "bool"
        }
      ],
      "stateMutability": "nonpayable",
      "type": "function"
    },
    {
      "inputs": [
        {
          "internalType": "address",
          "name": "_from",
          "type": "address"
        },
        {
          "internalType": "address",
          "name": "_to",
          "type": "address"
        },
        {
          "internalType": "uint256",
          "name": "_amount",
          "type": "uint256"
        }
      ],
      "name": "transferERC20",
      "outputs": [],
      "stateMutability": "payable",
      "type": "function"
    },
    {
      "inputs": [
        {
          "internalType": "address",
          "name": "_from",
          "type": "address"
        },
        {
          "internalType": "address",
          "name": "_to",
          "type": "address"
        },
        {
          "internalType": "uint256",
          "name": "_amount",
          "type": "uint256"
        }
      ],
      "name": "exchangeERC20",
      "outputs": [],
      "stateMutability": "payable",
      "type": "function"
    }
  ],
  "bytecode": "0x60806040523480156200001157600080fd5b5060405162001a9a38038062001a9a833981810160405281019062000037919062000342565b6040518060400160405280600a81526020017f4269746f20546f6b656e000000000000000000000000000000000000000000008152506040518060400160405280600381526020017f42545400000000000000000000000000000000000000000000000000000000008152508160039080519060200190620000bb9291906200027b565b508060049080519060200190620000d49291906200027b565b505050620000f181670de0b6b3a7640000620000f860201b60201c565b5062000573565b600073ffffffffffffffffffffffffffffffffffffffff168273ffffffffffffffffffffffffffffffffffffffff1614156200016b576040517f08c379a00000000000000000000000000000000000000000000000000000000081526004016200016290620003ac565b60405180910390fd5b6200017f600083836200027160201b60201c565b8060026000828254620001939190620003fc565b92505081905550806000808473ffffffffffffffffffffffffffffffffffffffff1673ffffffffffffffffffffffffffffffffffffffff1681526020019081526020016000206000828254620001ea9190620003fc565b925050819055508173ffffffffffffffffffffffffffffffffffffffff16600073ffffffffffffffffffffffffffffffffffffffff167fddf252ad1be2c89b69c2b068fc378daa952ba7f163c4a11628f55a4df523b3ef83604051620002519190620003ce565b60405180910390a36200026d600083836200027660201b60201c565b5050565b505050565b505050565b828054620002899062000497565b90600052602060002090601f016020900481019282620002ad5760008555620002f9565b82601f10620002c857805160ff1916838001178555620002f9565b82800160010185558215620002f9579182015b82811115620002f8578251825591602001919060010190620002db565b5b5090506200030891906200030c565b5090565b5b80821115620003275760008160009055506001016200030d565b5090565b6000815190506200033c8162000559565b92915050565b6000602082840312156200035b576200035a6200052b565b5b60006200036b848285016200032b565b91505092915050565b600062000383601f83620003eb565b9150620003908262000530565b602082019050919050565b620003a6816200048d565b82525050565b60006020820190508181036000830152620003c78162000374565b9050919050565b6000602082019050620003e560008301846200039b565b92915050565b600082825260208201905092915050565b600062000409826200048d565b915062000416836200048d565b9250827fffffffffffffffffffffffffffffffffffffffffffffffffffffffffffffffff038211156200044e576200044d620004cd565b5b828201905092915050565b600062000466826200046d565b9050919050565b600073ffffffffffffffffffffffffffffffffffffffff82169050919050565b6000819050919050565b60006002820490506001821680620004b057607f821691505b60208210811415620004c757620004c6620004fc565b5b50919050565b7f4e487b7100000000000000000000000000000000000000000000000000000000600052601160045260246000fd5b7f4e487b7100000000000000000000000000000000000000000000000000000000600052602260045260246000fd5b600080fd5b7f45524332303a206d696e7420746f20746865207a65726f206164647265737300600082015250565b620005648162000459565b81146200057057600080fd5b50565b61151780620005836000396000f3fe6080604052600436106100c25760003560e01c80633a40c5441161007f5780639db5dbe4116100595780639db5dbe414610283578063a457c2d71461029f578063a9059cbb146102dc578063dd62ed3e14610319576100c2565b80633a40c544146101ff57806370a082311461021b57806395d89b4114610258576100c2565b806306fdde03146100c7578063095ea7b3146100f257806318160ddd1461012f57806323b872dd1461015a578063313ce5671461019757806339509351146101c2575b600080fd5b3480156100d357600080fd5b506100dc610356565b6040516100e99190610fd8565b60405180910390f35b3480156100fe57600080fd5b5061011960048036038101906101149190610dcb565b6103e8565b6040516101269190610fbd565b60405180910390f35b34801561013b57600080fd5b5061014461040b565b60405161015191906110da565b60405180910390f35b34801561016657600080fd5b50610181600480360381019061017c9190610d78565b610415565b60405161018e9190610fbd565b60405180910390f35b3480156101a357600080fd5b506101ac610444565b6040516101b991906110f5565b60405180910390f35b3480156101ce57600080fd5b506101e960048036038101906101e49190610dcb565b61044d565b6040516101f69190610fbd565b60405180910390f35b61021960048036038101906102149190610d78565b610484565b005b34801561022757600080fd5b50610242600480360381019061023d9190610d0b565b61059d565b60405161024f91906110da565b60405180910390f35b34801561026457600080fd5b5061026d6105e5565b60405161027a9190610fd8565b60405180910390f35b61029d60048036038101906102989190610d78565b610677565b005b3480156102ab57600080fd5b506102c660048036038101906102c19190610dcb565b6106c1565b6040516102d39190610fbd565b60405180910390f35b3480156102e857600080fd5b5061030360048036038101906102fe9190610dcb565b610738565b6040516103109190610fbd565b60405180910390f35b34801561032557600080fd5b50610340600480360381019061033b9190610d38565b61075b565b60405161034d91906110da565b60405180910390f35b6060600380546103659061120a565b80601f01602080910402602001604051908101604052809291908181526020018280546103919061120a565b80156103de5780601f106103b3576101008083540402835291602001916103de565b820191906000526020600020905b8154815290600101906020018083116103c157829003601f168201915b5050505050905090565b6000806103f36107e2565b90506104008185856107ea565b600191505092915050565b6000600254905090565b6000806104206107e2565b905061042d8582856109b5565b610438858585610a41565b60019150509392505050565b60006012905090565b6000806104586107e2565b905061047981858561046a858961075b565b610474919061112c565b6107ea565b600191505092915050565b600073ffffffffffffffffffffffffffffffffffffffff168373ffffffffffffffffffffffffffffffffffffffff1614156104be57600080fd5b600073ffffffffffffffffffffffffffffffffffffffff168273ffffffffffffffffffffffffffffffffffffffff1614156104f857600080fd5b803073ffffffffffffffffffffffffffffffffffffffff166370a08231856040518263ffffffff1660e01b81526004016105329190610fa2565b60206040518083038186803b15801561054a57600080fd5b505afa15801561055e573d6000803e3d6000fd5b505050506040513d601f19601f820116820180604052508101906105829190610e0b565b101561058d57600080fd5b610598838383610a41565b505050565b60008060008373ffffffffffffffffffffffffffffffffffffffff1673ffffffffffffffffffffffffffffffffffffffff168152602001908152602001600020549050919050565b6060600480546105f49061120a565b80601f01602080910402602001604051908101604052809291908181526020018280546106209061120a565b801561066d5780601f106106425761010080835404028352916020019161066d565b820191906000526020600020905b81548152906001019060200180831161065057829003601f168201915b5050505050905090565b600073ffffffffffffffffffffffffffffffffffffffff168273ffffffffffffffffffffffffffffffffffffffff1614156106b157600080fd5b6106bc838383610a41565b505050565b6000806106cc6107e2565b905060006106da828661075b565b90508381101561071f576040517f08c379a0000000000000000000000000000000000000000000000000000000008152600401610716906110ba565b60405180910390fd5b61072c82868684036107ea565b60019250505092915050565b6000806107436107e2565b9050610750818585610a41565b600191505092915050565b6000600160008473ffffffffffffffffffffffffffffffffffffffff1673ffffffffffffffffffffffffffffffffffffffff16815260200190815260200160002060008373ffffffffffffffffffffffffffffffffffffffff1673ffffffffffffffffffffffffffffffffffffffff16815260200190815260200160002054905092915050565b600033905090565b600073ffffffffffffffffffffffffffffffffffffffff168373ffffffffffffffffffffffffffffffffffffffff16141561085a576040517f08c379a00000000000000000000000000000000000000000000000000000000081526004016108519061109a565b60405180910390fd5b600073ffffffffffffffffffffffffffffffffffffffff168273ffffffffffffffffffffffffffffffffffffffff1614156108ca576040517f08c379a00000000000000000000000000000000000000000000000000000000081526004016108c19061101a565b60405180910390fd5b80600160008573ffffffffffffffffffffffffffffffffffffffff1673ffffffffffffffffffffffffffffffffffffffff16815260200190815260200160002060008473ffffffffffffffffffffffffffffffffffffffff1673ffffffffffffffffffffffffffffffffffffffff168152602001908152602001600020819055508173ffffffffffffffffffffffffffffffffffffffff168373ffffffffffffffffffffffffffffffffffffffff167f8c5be1e5ebec7d5bd14f71427d1e84f3dd0314c0f7b2291e5b200ac8c7c3b925836040516109a891906110da565b60405180910390a3505050565b60006109c1848461075b565b90507fffffffffffffffffffffffffffffffffffffffffffffffffffffffffffffffff8114610a3b5781811015610a2d576040517f08c379a0000000000000000000000000000000000000000000000000000000008152600401610a249061103a565b60405180910390fd5b610a3a84848484036107ea565b5b50505050565b600073ffffffffffffffffffffffffffffffffffffffff168373ffffffffffffffffffffffffffffffffffffffff161415610ab1576040517f08c379a0000000000000000000000000000000000000000000000000000000008152600401610aa89061107a565b60405180910390fd5b600073ffffffffffffffffffffffffffffffffffffffff168273ffffffffffffffffffffffffffffffffffffffff161415610b21576040517f08c379a0000000000000000000000000000000000000000000000000000000008152600401610b1890610ffa565b60405180910390fd5b610b2c838383610cc2565b60008060008573ffffffffffffffffffffffffffffffffffffffff1673ffffffffffffffffffffffffffffffffffffffff16815260200190815260200160002054905081811015610bb2576040517f08c379a0000000000000000000000000000000000000000000000000000000008152600401610ba99061105a565b60405180910390fd5b8181036000808673ffffffffffffffffffffffffffffffffffffffff1673ffffffffffffffffffffffffffffffffffffffff16815260200190815260200160002081905550816000808573ffffffffffffffffffffffffffffffffffffffff1673ffffffffffffffffffffffffffffffffffffffff1681526020019081526020016000206000828254610c45919061112c565b925050819055508273ffffffffffffffffffffffffffffffffffffffff168473ffffffffffffffffffffffffffffffffffffffff167fddf252ad1be2c89b69c2b068fc378daa952ba7f163c4a11628f55a4df523b3ef84604051610ca991906110da565b60405180910390a3610cbc848484610cc7565b50505050565b505050565b505050565b600081359050610cdb816114b3565b92915050565b600081359050610cf0816114ca565b92915050565b600081519050610d05816114ca565b92915050565b600060208284031215610d2157610d2061129a565b5b6000610d2f84828501610ccc565b91505092915050565b60008060408385031215610d4f57610d4e61129a565b5b6000610d5d85828601610ccc565b9250506020610d6e85828601610ccc565b9150509250929050565b600080600060608486031215610d9157610d9061129a565b5b6000610d9f86828701610ccc565b9350506020610db086828701610ccc565b9250506040610dc186828701610ce1565b9150509250925092565b60008060408385031215610de257610de161129a565b5b6000610df085828601610ccc565b9250506020610e0185828601610ce1565b9150509250929050565b600060208284031215610e2157610e2061129a565b5b6000610e2f84828501610cf6565b91505092915050565b610e4181611182565b82525050565b610e5081611194565b82525050565b6000610e6182611110565b610e6b818561111b565b9350610e7b8185602086016111d7565b610e848161129f565b840191505092915050565b6000610e9c60238361111b565b9150610ea7826112b0565b604082019050919050565b6000610ebf60228361111b565b9150610eca826112ff565b604082019050919050565b6000610ee2601d8361111b565b9150610eed8261134e565b602082019050919050565b6000610f0560268361111b565b9150610f1082611377565b604082019050919050565b6000610f2860258361111b565b9150610f33826113c6565b604082019050919050565b6000610f4b60248361111b565b9150610f5682611415565b604082019050919050565b6000610f6e60258361111b565b9150610f7982611464565b604082019050919050565b610f8d816111c0565b82525050565b610f9c816111ca565b82525050565b6000602082019050610fb76000830184610e38565b92915050565b6000602082019050610fd26000830184610e47565b92915050565b60006020820190508181036000830152610ff28184610e56565b905092915050565b6000602082019050818103600083015261101381610e8f565b9050919050565b6000602082019050818103600083015261103381610eb2565b9050919050565b6000602082019050818103600083015261105381610ed5565b9050919050565b6000602082019050818103600083015261107381610ef8565b9050919050565b6000602082019050818103600083015261109381610f1b565b9050919050565b600060208201905081810360008301526110b381610f3e565b9050919050565b600060208201905081810360008301526110d381610f61565b9050919050565b60006020820190506110ef6000830184610f84565b92915050565b600060208201905061110a6000830184610f93565b92915050565b600081519050919050565b600082825260208201905092915050565b6000611137826111c0565b9150611142836111c0565b9250827fffffffffffffffffffffffffffffffffffffffffffffffffffffffffffffffff038211156111775761117661123c565b5b828201905092915050565b600061118d826111a0565b9050919050565b60008115159050919050565b600073ffffffffffffffffffffffffffffffffffffffff82169050919050565b6000819050919050565b600060ff82169050919050565b60005b838110156111f55780820151818401526020810190506111da565b83811115611204576000848401525b50505050565b6000600282049050600182168061122257607f821691505b602082108114156112365761123561126b565b5b50919050565b7f4e487b7100000000000000000000000000000000000000000000000000000000600052601160045260246000fd5b7f4e487b7100000000000000000000000000000000000000000000000000000000600052602260045260246000fd5b600080fd5b6000601f19601f8301169050919050565b7f45524332303a207472616e7366657220746f20746865207a65726f206164647260008201527f6573730000000000000000000000000000000000000000000000000000000000602082015250565b7f45524332303a20617070726f766520746f20746865207a65726f20616464726560008201527f7373000000000000000000000000000000000000000000000000000000000000602082015250565b7f45524332303a20696e73756666696369656e7420616c6c6f77616e6365000000600082015250565b7f45524332303a207472616e7366657220616d6f756e742065786365656473206260008201527f616c616e63650000000000000000000000000000000000000000000000000000602082015250565b7f45524332303a207472616e736665722066726f6d20746865207a65726f20616460008201527f6472657373000000000000000000000000000000000000000000000000000000602082015250565b7f45524332303a20617070726f76652066726f6d20746865207a65726f2061646460008201527f7265737300000000000000000000000000000000000000000000000000000000602082015250565b7f45524332303a2064656372656173656420616c6c6f77616e63652062656c6f7760008201527f207a65726f000000000000000000000000000000000000000000000000000000602082015250565b6114bc81611182565b81146114c757600080fd5b50565b6114d3816111c0565b81146114de57600080fd5b5056fea2646970667358221220da530932d477b37acf1b53c0a534af52e7f8a40631449a7cc6b2465da7e9ce0164736f6c63430008070033",
  "immutableReferences": {},
  "source": "// SPDX-License-Identifier: GPL-3.0\npragma solidity ^0.8.7;\n\nimport \"@openzeppelin/contracts/token/ERC20/ERC20.sol\";\n\ncontract ERC20Token is ERC20{\n\n    constructor(address _address) ERC20(\"Bito Token\", \"BTT\"){\n        _mint(_address, 1000000000000000000);\n    }\n\n    function transferERC20(address _from, address _to, uint256 _amount) public payable{\n        require(_to != address(0x0));\n\n        _transfer(_from, _to, _amount);\n\n    }\n\n    function exchangeERC20(address _from, address _to, uint256 _amount) public payable{\n        require(_from != address(0x0));\n        require(_to != address(0x0));\n        require(this.balanceOf(_from) >= _amount);\n\n        _transfer(_from, _to, _amount);\n    }\n}",
  "sourcePath": "/Users/kb-mac/00_workspace/block_chain/incentive_community/beb-05-Bito/contracts/contracts/ERC-20.sol",
  "compiler": {
    "name": "solc",
    "version": "0.8.7+commit.e28d00a7.Emscripten.clang"
  },
  "schemaVersion": "3.4.9",
  "updatedAt": "2022-08-29T14:15:40.838Z",
  "devdoc": {
    "kind": "dev",
    "methods": {
      "allowance(address,address)": {
        "details": "See {IERC20-allowance}."
      },
      "approve(address,uint256)": {
        "details": "See {IERC20-approve}. NOTE: If `amount` is the maximum `uint256`, the allowance is not updated on `transferFrom`. This is semantically equivalent to an infinite approval. Requirements: - `spender` cannot be the zero address."
      },
      "balanceOf(address)": {
        "details": "See {IERC20-balanceOf}."
      },
      "decimals()": {
        "details": "Returns the number of decimals used to get its user representation. For example, if `decimals` equals `2`, a balance of `505` tokens should be displayed to a user as `5.05` (`505 / 10 ** 2`). Tokens usually opt for a value of 18, imitating the relationship between Ether and Wei. This is the value {ERC20} uses, unless this function is overridden; NOTE: This information is only used for _display_ purposes: it in no way affects any of the arithmetic of the contract, including {IERC20-balanceOf} and {IERC20-transfer}."
      },
      "decreaseAllowance(address,uint256)": {
        "details": "Atomically decreases the allowance granted to `spender` by the caller. This is an alternative to {approve} that can be used as a mitigation for problems described in {IERC20-approve}. Emits an {Approval} event indicating the updated allowance. Requirements: - `spender` cannot be the zero address. - `spender` must have allowance for the caller of at least `subtractedValue`."
      },
      "increaseAllowance(address,uint256)": {
        "details": "Atomically increases the allowance granted to `spender` by the caller. This is an alternative to {approve} that can be used as a mitigation for problems described in {IERC20-approve}. Emits an {Approval} event indicating the updated allowance. Requirements: - `spender` cannot be the zero address."
      },
      "name()": {
        "details": "Returns the name of the token."
      },
      "symbol()": {
        "details": "Returns the symbol of the token, usually a shorter version of the name."
      },
      "totalSupply()": {
        "details": "See {IERC20-totalSupply}."
      },
      "transfer(address,uint256)": {
        "details": "See {IERC20-transfer}. Requirements: - `to` cannot be the zero address. - the caller must have a balance of at least `amount`."
      },
      "transferFrom(address,address,uint256)": {
        "details": "See {IERC20-transferFrom}. Emits an {Approval} event indicating the updated allowance. This is not required by the EIP. See the note at the beginning of {ERC20}. NOTE: Does not update the allowance if the current allowance is the maximum `uint256`. Requirements: - `from` and `to` cannot be the zero address. - `from` must have a balance of at least `amount`. - the caller must have allowance for ``from``'s tokens of at least `amount`."
      }
    },
    "version": 1
  },
  "userdoc": {
    "kind": "user",
    "methods": {},
    "version": 1
  }
}