{
  "contractName": "ERC721Token",
  "abi": [
    {
      "inputs": [],
      "stateMutability": "nonpayable",
      "type": "constructor"
    },
    {
      "anonymous": false,
      "inputs": [
        {
          "indexed": true,
          "internalType": "address",
          "name": "owner",
          "type": "address"
        },
        {
          "indexed": true,
          "internalType": "address",
          "name": "approved",
          "type": "address"
        },
        {
          "indexed": true,
          "internalType": "uint256",
          "name": "tokenId",
          "type": "uint256"
        }
      ],
      "name": "Approval",
      "type": "event"
    },
    {
      "anonymous": false,
      "inputs": [
        {
          "indexed": true,
          "internalType": "address",
          "name": "owner",
          "type": "address"
        },
        {
          "indexed": true,
          "internalType": "address",
          "name": "operator",
          "type": "address"
        },
        {
          "indexed": false,
          "internalType": "bool",
          "name": "approved",
          "type": "bool"
        }
      ],
      "name": "ApprovalForAll",
      "type": "event"
    },
    {
      "anonymous": false,
      "inputs": [
        {
          "indexed": true,
          "internalType": "address",
          "name": "from",
          "type": "address"
        },
        {
          "indexed": true,
          "internalType": "address",
          "name": "to",
          "type": "address"
        },
        {
          "indexed": true,
          "internalType": "uint256",
          "name": "tokenId",
          "type": "uint256"
        }
      ],
      "name": "Transfer",
      "type": "event"
    },
    {
      "inputs": [
        {
          "internalType": "address",
          "name": "to",
          "type": "address"
        },
        {
          "internalType": "uint256",
          "name": "tokenId",
          "type": "uint256"
        }
      ],
      "name": "approve",
      "outputs": [],
      "stateMutability": "nonpayable",
      "type": "function"
    },
    {
      "inputs": [
        {
          "internalType": "address",
          "name": "owner",
          "type": "address"
        }
      ],
      "name": "balanceOf",
      "outputs": [
        {
          "internalType": "uint256",
          "name": "",
          "type": "uint256"
        }
      ],
      "stateMutability": "view",
      "type": "function"
    },
    {
      "inputs": [
        {
          "internalType": "uint256",
          "name": "tokenId",
          "type": "uint256"
        }
      ],
      "name": "getApproved",
      "outputs": [
        {
          "internalType": "address",
          "name": "",
          "type": "address"
        }
      ],
      "stateMutability": "view",
      "type": "function"
    },
    {
      "inputs": [
        {
          "internalType": "address",
          "name": "owner",
          "type": "address"
        },
        {
          "internalType": "address",
          "name": "operator",
          "type": "address"
        }
      ],
      "name": "isApprovedForAll",
      "outputs": [
        {
          "internalType": "bool",
          "name": "",
          "type": "bool"
        }
      ],
      "stateMutability": "view",
      "type": "function"
    },
    {
      "inputs": [],
      "name": "name",
      "outputs": [
        {
          "internalType": "string",
          "name": "",
          "type": "string"
        }
      ],
      "stateMutability": "view",
      "type": "function"
    },
    {
      "inputs": [
        {
          "internalType": "uint256",
          "name": "tokenId",
          "type": "uint256"
        }
      ],
      "name": "ownerOf",
      "outputs": [
        {
          "internalType": "address",
          "name": "",
          "type": "address"
        }
      ],
      "stateMutability": "view",
      "type": "function"
    },
    {
      "inputs": [
        {
          "internalType": "address",
          "name": "from",
          "type": "address"
        },
        {
          "internalType": "address",
          "name": "to",
          "type": "address"
        },
        {
          "internalType": "uint256",
          "name": "tokenId",
          "type": "uint256"
        }
      ],
      "name": "safeTransferFrom",
      "outputs": [],
      "stateMutability": "nonpayable",
      "type": "function"
    },
    {
      "inputs": [
        {
          "internalType": "address",
          "name": "from",
          "type": "address"
        },
        {
          "internalType": "address",
          "name": "to",
          "type": "address"
        },
        {
          "internalType": "uint256",
          "name": "tokenId",
          "type": "uint256"
        },
        {
          "internalType": "bytes",
          "name": "data",
          "type": "bytes"
        }
      ],
      "name": "safeTransferFrom",
      "outputs": [],
      "stateMutability": "nonpayable",
      "type": "function"
    },
    {
      "inputs": [
        {
          "internalType": "address",
          "name": "operator",
          "type": "address"
        },
        {
          "internalType": "bool",
          "name": "approved",
          "type": "bool"
        }
      ],
      "name": "setApprovalForAll",
      "outputs": [],
      "stateMutability": "nonpayable",
      "type": "function"
    },
    {
      "inputs": [
        {
          "internalType": "bytes4",
          "name": "interfaceId",
          "type": "bytes4"
        }
      ],
      "name": "supportsInterface",
      "outputs": [
        {
          "internalType": "bool",
          "name": "",
          "type": "bool"
        }
      ],
      "stateMutability": "view",
      "type": "function"
    },
    {
      "inputs": [],
      "name": "symbol",
      "outputs": [
        {
          "internalType": "string",
          "name": "",
          "type": "string"
        }
      ],
      "stateMutability": "view",
      "type": "function"
    },
    {
      "inputs": [],
      "name": "tokenCount",
      "outputs": [
        {
          "internalType": "uint256",
          "name": "",
          "type": "uint256"
        }
      ],
      "stateMutability": "view",
      "type": "function"
    },
    {
      "inputs": [
        {
          "internalType": "uint256",
          "name": "tokenId",
          "type": "uint256"
        }
      ],
      "name": "tokenURI",
      "outputs": [
        {
          "internalType": "string",
          "name": "",
          "type": "string"
        }
      ],
      "stateMutability": "view",
      "type": "function"
    },
    {
      "inputs": [
        {
          "internalType": "address",
          "name": "from",
          "type": "address"
        },
        {
          "internalType": "address",
          "name": "to",
          "type": "address"
        },
        {
          "internalType": "uint256",
          "name": "tokenId",
          "type": "uint256"
        }
      ],
      "name": "transferFrom",
      "outputs": [],
      "stateMutability": "nonpayable",
      "type": "function"
    },
    {
      "inputs": [],
      "name": "getTokenCount",
      "outputs": [
        {
          "internalType": "uint256",
          "name": "",
          "type": "uint256"
        }
      ],
      "stateMutability": "view",
      "type": "function"
    },
    {
      "inputs": [
        {
          "internalType": "address",
          "name": "_owner",
          "type": "address"
        },
        {
          "internalType": "string",
          "name": "_tokenURI",
          "type": "string"
        }
      ],
      "name": "mintNFT",
      "outputs": [
        {
          "internalType": "uint256",
          "name": "",
          "type": "uint256"
        }
      ],
      "stateMutability": "nonpayable",
      "type": "function"
    },
    {
      "inputs": [
        {
          "internalType": "address",
          "name": "_owner",
          "type": "address"
        }
      ],
      "name": "setApprovalForNFTs",
      "outputs": [
        {
          "internalType": "bool",
          "name": "",
          "type": "bool"
        }
      ],
      "stateMutability": "nonpayable",
      "type": "function"
    },
    {
      "inputs": [
        {
          "internalType": "address",
          "name": "_from",
          "type": "address"
        },
        {
          "internalType": "address",
          "name": "_to",
          "type": "address"
        },
        {
          "internalType": "uint256",
          "name": "_tokenId",
          "type": "uint256"
        }
      ],
      "name": "tokenTrasferFrom",
      "outputs": [
        {
          "internalType": "bool",
          "name": "",
          "type": "bool"
        }
      ],
      "stateMutability": "nonpayable",
      "type": "function"
    }
  ],
  "bytecode": "0x60806040523480156200001157600080fd5b506040518060400160405280600881526020017f4269746f204e46540000000000000000000000000000000000000000000000008152506040518060400160405280600381526020017f4e46540000000000000000000000000000000000000000000000000000000000815250816000908051906020019062000096929190620000b8565b508060019080519060200190620000af929190620000b8565b505050620001cd565b828054620000c69062000168565b90600052602060002090601f016020900481019282620000ea576000855562000136565b82601f106200010557805160ff191683800117855562000136565b8280016001018555821562000136579182015b828111156200013557825182559160200191906001019062000118565b5b50905062000145919062000149565b5090565b5b80821115620001645760008160009055506001016200014a565b5090565b600060028204905060018216806200018157607f821691505b602082108114156200019857620001976200019e565b5b50919050565b7f4e487b7100000000000000000000000000000000000000000000000000000000600052602260045260246000fd5b612ce280620001dd6000396000f3fe608060405234801561001057600080fd5b50600436106101165760003560e01c806395d89b41116100a2578063c87b56dd11610071578063c87b56dd146102df578063d4843aed1461030f578063e985e9c51461033f578063eacabe141461036f578063ed9acae71461039f57610116565b806395d89b411461026b5780639f181b5e14610289578063a22cb465146102a7578063b88d4fde146102c357610116565b806323b872dd116100e957806323b872dd146101b557806342842e0e146101d15780636352211e146101ed57806370a082311461021d57806378a895671461024d57610116565b806301ffc9a71461011b57806306fdde031461014b578063081812fc14610169578063095ea7b314610199575b600080fd5b61013560048036038101906101309190611e6a565b6103cf565b6040516101429190612259565b60405180910390f35b6101536104b1565b6040516101609190612274565b60405180910390f35b610183600480360381019061017e9190611ec4565b610543565b60405161019091906121f2565b60405180910390f35b6101b360048036038101906101ae9190611e2a565b610589565b005b6101cf60048036038101906101ca9190611cb8565b6106a1565b005b6101eb60048036038101906101e69190611cb8565b610701565b005b61020760048036038101906102029190611ec4565b610721565b60405161021491906121f2565b60405180910390f35b61023760048036038101906102329190611c4b565b6107d3565b6040516102449190612476565b60405180910390f35b61025561088b565b6040516102629190612476565b60405180910390f35b610273610895565b6040516102809190612274565b60405180910390f35b610291610927565b60405161029e9190612476565b60405180910390f35b6102c160048036038101906102bc9190611d8e565b61092d565b005b6102dd60048036038101906102d89190611d0b565b610943565b005b6102f960048036038101906102f49190611ec4565b6109a5565b6040516103069190612274565b60405180910390f35b61032960048036038101906103249190611c4b565b610ab8565b6040516103369190612259565b60405180910390f35b61035960048036038101906103549190611c78565b610b04565b6040516103669190612259565b60405180910390f35b61038960048036038101906103849190611dce565b610b98565b6040516103969190612476565b60405180910390f35b6103b960048036038101906103b49190611cb8565b610c0e565b6040516103c69190612259565b60405180910390f35b60007f80ac58cd000000000000000000000000000000000000000000000000000000007bffffffffffffffffffffffffffffffffffffffffffffffffffffffff1916827bffffffffffffffffffffffffffffffffffffffffffffffffffffffff1916148061049a57507f5b5e139f000000000000000000000000000000000000000000000000000000007bffffffffffffffffffffffffffffffffffffffffffffffffffffffff1916827bffffffffffffffffffffffffffffffffffffffffffffffffffffffff1916145b806104aa57506104a982610d4d565b5b9050919050565b6060600080546104c0906126cc565b80601f01602080910402602001604051908101604052809291908181526020018280546104ec906126cc565b80156105395780601f1061050e57610100808354040283529160200191610539565b820191906000526020600020905b81548152906001019060200180831161051c57829003601f168201915b5050505050905090565b600061054e82610db7565b6004600083815260200190815260200160002060009054906101000a900473ffffffffffffffffffffffffffffffffffffffff169050919050565b600061059482610721565b90508073ffffffffffffffffffffffffffffffffffffffff168373ffffffffffffffffffffffffffffffffffffffff161415610605576040517f08c379a00000000000000000000000000000000000000000000000000000000081526004016105fc90612416565b60405180910390fd5b8073ffffffffffffffffffffffffffffffffffffffff16610624610e02565b73ffffffffffffffffffffffffffffffffffffffff16148061065357506106528161064d610e02565b610b04565b5b610692576040517f08c379a000000000000000000000000000000000000000000000000000000000815260040161068990612396565b60405180910390fd5b61069c8383610e0a565b505050565b6106b26106ac610e02565b82610ec3565b6106f1576040517f08c379a00000000000000000000000000000000000000000000000000000000081526004016106e890612456565b60405180910390fd5b6106fc838383610f58565b505050565b61071c83838360405180602001604052806000815250610943565b505050565b6000806002600084815260200190815260200160002060009054906101000a900473ffffffffffffffffffffffffffffffffffffffff169050600073ffffffffffffffffffffffffffffffffffffffff168173ffffffffffffffffffffffffffffffffffffffff1614156107ca576040517f08c379a00000000000000000000000000000000000000000000000000000000081526004016107c1906123f6565b60405180910390fd5b80915050919050565b60008073ffffffffffffffffffffffffffffffffffffffff168273ffffffffffffffffffffffffffffffffffffffff161415610844576040517f08c379a000000000000000000000000000000000000000000000000000000000815260040161083b90612336565b60405180910390fd5b600360008373ffffffffffffffffffffffffffffffffffffffff1673ffffffffffffffffffffffffffffffffffffffff168152602001908152602001600020549050919050565b6000600754905090565b6060600180546108a4906126cc565b80601f01602080910402602001604051908101604052809291908181526020018280546108d0906126cc565b801561091d5780601f106108f25761010080835404028352916020019161091d565b820191906000526020600020905b81548152906001019060200180831161090057829003601f168201915b5050505050905090565b60075481565b61093f610938610e02565b83836111bf565b5050565b61095461094e610e02565b83610ec3565b610993576040517f08c379a000000000000000000000000000000000000000000000000000000000815260040161098a90612456565b60405180910390fd5b61099f8484848461132c565b50505050565b60606109b082610db7565b60006006600084815260200190815260200160002080546109d0906126cc565b80601f01602080910402602001604051908101604052809291908181526020018280546109fc906126cc565b8015610a495780601f10610a1e57610100808354040283529160200191610a49565b820191906000526020600020905b815481529060010190602001808311610a2c57829003601f168201915b505050505090506000610a5a611388565b9050600081511415610a70578192505050610ab3565b600082511115610aa5578082604051602001610a8d9291906121ce565b60405160208183030381529060405292505050610ab3565b610aae8461139f565b925050505b919050565b60008073ffffffffffffffffffffffffffffffffffffffff168273ffffffffffffffffffffffffffffffffffffffff161415610af357600080fd5b610aff823360016111bf565b919050565b6000600560008473ffffffffffffffffffffffffffffffffffffffff1673ffffffffffffffffffffffffffffffffffffffff16815260200190815260200160002060008373ffffffffffffffffffffffffffffffffffffffff1673ffffffffffffffffffffffffffffffffffffffff16815260200190815260200160002060009054906101000a900460ff16905092915050565b60008073ffffffffffffffffffffffffffffffffffffffff168373ffffffffffffffffffffffffffffffffffffffff161415610bd357600080fd5b60076000815480929190610be69061272f565b9190505550610bf783600754611407565b610c0360075483611425565b600754905092915050565b60008073ffffffffffffffffffffffffffffffffffffffff168473ffffffffffffffffffffffffffffffffffffffff161415610c7f576040517f08c379a0000000000000000000000000000000000000000000000000000000008152600401610c7690612356565b60405180910390fd5b8273ffffffffffffffffffffffffffffffffffffffff168473ffffffffffffffffffffffffffffffffffffffff161415610cee576040517f08c379a0000000000000000000000000000000000000000000000000000000008152600401610ce590612436565b60405180910390fd5b610cf88433610b04565b610d37576040517f08c379a0000000000000000000000000000000000000000000000000000000008152600401610d2e906123d6565b60405180910390fd5b610d42848484610f58565b600190509392505050565b60007f01ffc9a7000000000000000000000000000000000000000000000000000000007bffffffffffffffffffffffffffffffffffffffffffffffffffffffff1916827bffffffffffffffffffffffffffffffffffffffffffffffffffffffff1916149050919050565b610dc081611499565b610dff576040517f08c379a0000000000000000000000000000000000000000000000000000000008152600401610df6906123f6565b60405180910390fd5b50565b600033905090565b816004600083815260200190815260200160002060006101000a81548173ffffffffffffffffffffffffffffffffffffffff021916908373ffffffffffffffffffffffffffffffffffffffff160217905550808273ffffffffffffffffffffffffffffffffffffffff16610e7d83610721565b73ffffffffffffffffffffffffffffffffffffffff167f8c5be1e5ebec7d5bd14f71427d1e84f3dd0314c0f7b2291e5b200ac8c7c3b92560405160405180910390a45050565b600080610ecf83610721565b90508073ffffffffffffffffffffffffffffffffffffffff168473ffffffffffffffffffffffffffffffffffffffff161480610f115750610f108185610b04565b5b80610f4f57508373ffffffffffffffffffffffffffffffffffffffff16610f3784610543565b73ffffffffffffffffffffffffffffffffffffffff16145b91505092915050565b8273ffffffffffffffffffffffffffffffffffffffff16610f7882610721565b73ffffffffffffffffffffffffffffffffffffffff1614610fce576040517f08c379a0000000000000000000000000000000000000000000000000000000008152600401610fc5906122b6565b60405180910390fd5b600073ffffffffffffffffffffffffffffffffffffffff168273ffffffffffffffffffffffffffffffffffffffff16141561103e576040517f08c379a0000000000000000000000000000000000000000000000000000000008152600401611035906122f6565b60405180910390fd5b611049838383611505565b611054600082610e0a565b6001600360008573ffffffffffffffffffffffffffffffffffffffff1673ffffffffffffffffffffffffffffffffffffffff16815260200190815260200160002060008282546110a491906125e2565b925050819055506001600360008473ffffffffffffffffffffffffffffffffffffffff1673ffffffffffffffffffffffffffffffffffffffff16815260200190815260200160002060008282546110fb919061255b565b92505081905550816002600083815260200190815260200160002060006101000a81548173ffffffffffffffffffffffffffffffffffffffff021916908373ffffffffffffffffffffffffffffffffffffffff160217905550808273ffffffffffffffffffffffffffffffffffffffff168473ffffffffffffffffffffffffffffffffffffffff167fddf252ad1be2c89b69c2b068fc378daa952ba7f163c4a11628f55a4df523b3ef60405160405180910390a46111ba83838361150a565b505050565b8173ffffffffffffffffffffffffffffffffffffffff168373ffffffffffffffffffffffffffffffffffffffff16141561122e576040517f08c379a000000000000000000000000000000000000000000000000000000000815260040161122590612316565b60405180910390fd5b80600560008573ffffffffffffffffffffffffffffffffffffffff1673ffffffffffffffffffffffffffffffffffffffff16815260200190815260200160002060008473ffffffffffffffffffffffffffffffffffffffff1673ffffffffffffffffffffffffffffffffffffffff16815260200190815260200160002060006101000a81548160ff0219169083151502179055508173ffffffffffffffffffffffffffffffffffffffff168373ffffffffffffffffffffffffffffffffffffffff167f17307eab39ab6107e8899845ad3d59bd9653f200f220920489ca2b5937696c318360405161131f9190612259565b60405180910390a3505050565b611337848484610f58565b6113438484848461150f565b611382576040517f08c379a000000000000000000000000000000000000000000000000000000000815260040161137990612296565b60405180910390fd5b50505050565b606060405180602001604052806000815250905090565b60606113aa82610db7565b60006113b4611388565b905060008151116113d457604051806020016040528060008152506113ff565b806113de846116a6565b6040516020016113ef9291906121ce565b6040516020818303038152906040525b915050919050565b611421828260405180602001604052806000815250611807565b5050565b61142e82611499565b61146d576040517f08c379a000000000000000000000000000000000000000000000000000000000815260040161146490612376565b60405180910390fd5b80600660008481526020019081526020016000209080519060200190611494929190611a5f565b505050565b60008073ffffffffffffffffffffffffffffffffffffffff166002600084815260200190815260200160002060009054906101000a900473ffffffffffffffffffffffffffffffffffffffff1673ffffffffffffffffffffffffffffffffffffffff1614159050919050565b505050565b505050565b60006115308473ffffffffffffffffffffffffffffffffffffffff16611862565b15611699578373ffffffffffffffffffffffffffffffffffffffff1663150b7a02611559610e02565b8786866040518563ffffffff1660e01b815260040161157b949392919061220d565b602060405180830381600087803b15801561159557600080fd5b505af19250505080156115c657506040513d601f19601f820116820180604052508101906115c39190611e97565b60015b611649573d80600081146115f6576040519150601f19603f3d011682016040523d82523d6000602084013e6115fb565b606091505b50600081511415611641576040517f08c379a000000000000000000000000000000000000000000000000000000000815260040161163890612296565b60405180910390fd5b805181602001fd5b63150b7a0260e01b7bffffffffffffffffffffffffffffffffffffffffffffffffffffffff1916817bffffffffffffffffffffffffffffffffffffffffffffffffffffffff19161491505061169e565b600190505b949350505050565b606060008214156116ee576040518060400160405280600181526020017f30000000000000000000000000000000000000000000000000000000000000008152509050611802565b600082905060005b600082146117205780806117099061272f565b915050600a8261171991906125b1565b91506116f6565b60008167ffffffffffffffff81111561173c5761173b612865565b5b6040519080825280601f01601f19166020018201604052801561176e5781602001600182028036833780820191505090505b5090505b600085146117fb5760018261178791906125e2565b9150600a856117969190612778565b60306117a2919061255b565b60f81b8183815181106117b8576117b7612836565b5b60200101907effffffffffffffffffffffffffffffffffffffffffffffffffffffffffffff1916908160001a905350600a856117f491906125b1565b9450611772565b8093505050505b919050565b6118118383611885565b61181e600084848461150f565b61185d576040517f08c379a000000000000000000000000000000000000000000000000000000000815260040161185490612296565b60405180910390fd5b505050565b6000808273ffffffffffffffffffffffffffffffffffffffff163b119050919050565b600073ffffffffffffffffffffffffffffffffffffffff168273ffffffffffffffffffffffffffffffffffffffff1614156118f5576040517f08c379a00000000000000000000000000000000000000000000000000000000081526004016118ec906123b6565b60405180910390fd5b6118fe81611499565b1561193e576040517f08c379a0000000000000000000000000000000000000000000000000000000008152600401611935906122d6565b60405180910390fd5b61194a60008383611505565b6001600360008473ffffffffffffffffffffffffffffffffffffffff1673ffffffffffffffffffffffffffffffffffffffff168152602001908152602001600020600082825461199a919061255b565b92505081905550816002600083815260200190815260200160002060006101000a81548173ffffffffffffffffffffffffffffffffffffffff021916908373ffffffffffffffffffffffffffffffffffffffff160217905550808273ffffffffffffffffffffffffffffffffffffffff16600073ffffffffffffffffffffffffffffffffffffffff167fddf252ad1be2c89b69c2b068fc378daa952ba7f163c4a11628f55a4df523b3ef60405160405180910390a4611a5b6000838361150a565b5050565b828054611a6b906126cc565b90600052602060002090601f016020900481019282611a8d5760008555611ad4565b82601f10611aa657805160ff1916838001178555611ad4565b82800160010185558215611ad4579182015b82811115611ad3578251825591602001919060010190611ab8565b5b509050611ae19190611ae5565b5090565b5b80821115611afe576000816000905550600101611ae6565b5090565b6000611b15611b10846124b6565b612491565b905082815260208101848484011115611b3157611b30612899565b5b611b3c84828561268a565b509392505050565b6000611b57611b52846124e7565b612491565b905082815260208101848484011115611b7357611b72612899565b5b611b7e84828561268a565b509392505050565b600081359050611b9581612c50565b92915050565b600081359050611baa81612c67565b92915050565b600081359050611bbf81612c7e565b92915050565b600081519050611bd481612c7e565b92915050565b600082601f830112611bef57611bee612894565b5b8135611bff848260208601611b02565b91505092915050565b600082601f830112611c1d57611c1c612894565b5b8135611c2d848260208601611b44565b91505092915050565b600081359050611c4581612c95565b92915050565b600060208284031215611c6157611c606128a3565b5b6000611c6f84828501611b86565b91505092915050565b60008060408385031215611c8f57611c8e6128a3565b5b6000611c9d85828601611b86565b9250506020611cae85828601611b86565b9150509250929050565b600080600060608486031215611cd157611cd06128a3565b5b6000611cdf86828701611b86565b9350506020611cf086828701611b86565b9250506040611d0186828701611c36565b9150509250925092565b60008060008060808587031215611d2557611d246128a3565b5b6000611d3387828801611b86565b9450506020611d4487828801611b86565b9350506040611d5587828801611c36565b925050606085013567ffffffffffffffff811115611d7657611d7561289e565b5b611d8287828801611bda565b91505092959194509250565b60008060408385031215611da557611da46128a3565b5b6000611db385828601611b86565b9250506020611dc485828601611b9b565b9150509250929050565b60008060408385031215611de557611de46128a3565b5b6000611df385828601611b86565b925050602083013567ffffffffffffffff811115611e1457611e1361289e565b5b611e2085828601611c08565b9150509250929050565b60008060408385031215611e4157611e406128a3565b5b6000611e4f85828601611b86565b9250506020611e6085828601611c36565b9150509250929050565b600060208284031215611e8057611e7f6128a3565b5b6000611e8e84828501611bb0565b91505092915050565b600060208284031215611ead57611eac6128a3565b5b6000611ebb84828501611bc5565b91505092915050565b600060208284031215611eda57611ed96128a3565b5b6000611ee884828501611c36565b91505092915050565b611efa81612616565b82525050565b611f0981612628565b82525050565b6000611f1a82612518565b611f24818561252e565b9350611f34818560208601612699565b611f3d816128a8565b840191505092915050565b6000611f5382612523565b611f5d818561253f565b9350611f6d818560208601612699565b611f76816128a8565b840191505092915050565b6000611f8c82612523565b611f968185612550565b9350611fa6818560208601612699565b80840191505092915050565b6000611fbf60328361253f565b9150611fca826128b9565b604082019050919050565b6000611fe260258361253f565b9150611fed82612908565b604082019050919050565b6000612005601c8361253f565b915061201082612957565b602082019050919050565b600061202860248361253f565b915061203382612980565b604082019050919050565b600061204b60198361253f565b9150612056826129cf565b602082019050919050565b600061206e60298361253f565b9150612079826129f8565b604082019050919050565b600061209160198361253f565b915061209c82612a47565b602082019050919050565b60006120b4602e8361253f565b91506120bf82612a70565b604082019050919050565b60006120d7603e8361253f565b91506120e282612abf565b604082019050919050565b60006120fa60208361253f565b915061210582612b0e565b602082019050919050565b600061211d60128361253f565b915061212882612b37565b602082019050919050565b600061214060188361253f565b915061214b82612b60565b602082019050919050565b600061216360218361253f565b915061216e82612b89565b604082019050919050565b6000612186601d8361253f565b915061219182612bd8565b602082019050919050565b60006121a9602e8361253f565b91506121b482612c01565b604082019050919050565b6121c881612680565b82525050565b60006121da8285611f81565b91506121e68284611f81565b91508190509392505050565b60006020820190506122076000830184611ef1565b92915050565b60006080820190506122226000830187611ef1565b61222f6020830186611ef1565b61223c60408301856121bf565b818103606083015261224e8184611f0f565b905095945050505050565b600060208201905061226e6000830184611f00565b92915050565b6000602082019050818103600083015261228e8184611f48565b905092915050565b600060208201905081810360008301526122af81611fb2565b9050919050565b600060208201905081810360008301526122cf81611fd5565b9050919050565b600060208201905081810360008301526122ef81611ff8565b9050919050565b6000602082019050818103600083015261230f8161201b565b9050919050565b6000602082019050818103600083015261232f8161203e565b9050919050565b6000602082019050818103600083015261234f81612061565b9050919050565b6000602082019050818103600083015261236f81612084565b9050919050565b6000602082019050818103600083015261238f816120a7565b9050919050565b600060208201905081810360008301526123af816120ca565b9050919050565b600060208201905081810360008301526123cf816120ed565b9050919050565b600060208201905081810360008301526123ef81612110565b9050919050565b6000602082019050818103600083015261240f81612133565b9050919050565b6000602082019050818103600083015261242f81612156565b9050919050565b6000602082019050818103600083015261244f81612179565b9050919050565b6000602082019050818103600083015261246f8161219c565b9050919050565b600060208201905061248b60008301846121bf565b92915050565b600061249b6124ac565b90506124a782826126fe565b919050565b6000604051905090565b600067ffffffffffffffff8211156124d1576124d0612865565b5b6124da826128a8565b9050602081019050919050565b600067ffffffffffffffff82111561250257612501612865565b5b61250b826128a8565b9050602081019050919050565b600081519050919050565b600081519050919050565b600082825260208201905092915050565b600082825260208201905092915050565b600081905092915050565b600061256682612680565b915061257183612680565b9250827fffffffffffffffffffffffffffffffffffffffffffffffffffffffffffffffff038211156125a6576125a56127a9565b5b828201905092915050565b60006125bc82612680565b91506125c783612680565b9250826125d7576125d66127d8565b5b828204905092915050565b60006125ed82612680565b91506125f883612680565b92508282101561260b5761260a6127a9565b5b828203905092915050565b600061262182612660565b9050919050565b60008115159050919050565b60007fffffffff0000000000000000000000000000000000000000000000000000000082169050919050565b600073ffffffffffffffffffffffffffffffffffffffff82169050919050565b6000819050919050565b82818337600083830152505050565b60005b838110156126b757808201518184015260208101905061269c565b838111156126c6576000848401525b50505050565b600060028204905060018216806126e457607f821691505b602082108114156126f8576126f7612807565b5b50919050565b612707826128a8565b810181811067ffffffffffffffff8211171561272657612725612865565b5b80604052505050565b600061273a82612680565b91507fffffffffffffffffffffffffffffffffffffffffffffffffffffffffffffffff82141561276d5761276c6127a9565b5b600182019050919050565b600061278382612680565b915061278e83612680565b92508261279e5761279d6127d8565b5b828206905092915050565b7f4e487b7100000000000000000000000000000000000000000000000000000000600052601160045260246000fd5b7f4e487b7100000000000000000000000000000000000000000000000000000000600052601260045260246000fd5b7f4e487b7100000000000000000000000000000000000000000000000000000000600052602260045260246000fd5b7f4e487b7100000000000000000000000000000000000000000000000000000000600052603260045260246000fd5b7f4e487b7100000000000000000000000000000000000000000000000000000000600052604160045260246000fd5b600080fd5b600080fd5b600080fd5b600080fd5b6000601f19601f8301169050919050565b7f4552433732313a207472616e7366657220746f206e6f6e20455243373231526560008201527f63656976657220696d706c656d656e7465720000000000000000000000000000602082015250565b7f4552433732313a207472616e736665722066726f6d20696e636f72726563742060008201527f6f776e6572000000000000000000000000000000000000000000000000000000602082015250565b7f4552433732313a20746f6b656e20616c7265616479206d696e74656400000000600082015250565b7f4552433732313a207472616e7366657220746f20746865207a65726f2061646460008201527f7265737300000000000000000000000000000000000000000000000000000000602082015250565b7f4552433732313a20617070726f766520746f2063616c6c657200000000000000600082015250565b7f4552433732313a2061646472657373207a65726f206973206e6f74206120766160008201527f6c6964206f776e65720000000000000000000000000000000000000000000000602082015250565b7f616464726573732073686f756c646e2774206265207a65726f00000000000000600082015250565b7f45524337323155524953746f726167653a2055524920736574206f66206e6f6e60008201527f6578697374656e7420746f6b656e000000000000000000000000000000000000602082015250565b7f4552433732313a20617070726f76652063616c6c6572206973206e6f7420746f60008201527f6b656e206f776e6572206e6f7220617070726f76656420666f7220616c6c0000602082015250565b7f4552433732313a206d696e7420746f20746865207a65726f2061646472657373600082015250565b7f4f776e6572736869702072657175697265640000000000000000000000000000600082015250565b7f4552433732313a20696e76616c696420746f6b656e2049440000000000000000600082015250565b7f4552433732313a20617070726f76616c20746f2063757272656e74206f776e6560008201527f7200000000000000000000000000000000000000000000000000000000000000602082015250565b7f73656c6c657220616e6420627579657220697320646966666572656e74000000600082015250565b7f4552433732313a2063616c6c6572206973206e6f7420746f6b656e206f776e6560008201527f72206e6f7220617070726f766564000000000000000000000000000000000000602082015250565b612c5981612616565b8114612c6457600080fd5b50565b612c7081612628565b8114612c7b57600080fd5b50565b612c8781612634565b8114612c9257600080fd5b50565b612c9e81612680565b8114612ca957600080fd5b5056fea264697066735822122059b18050ce201df3cdbd15bfda6a15922b5da373714e64c3e779eb6c4ef1d4aa64736f6c63430008070033",
  "immutableReferences": {},
  "source": "// SPDX-License-Identifier: GPL-3.0\npragma solidity ^0.8.7;\n\nimport \"@openzeppelin/contracts/token/ERC721/ERC721.sol\";\nimport \"@openzeppelin/contracts/token/ERC721/extensions/ERC721URIStorage.sol\";\n\ncontract ERC721Token is ERC721URIStorage {\n\n    uint256 public tokenCount;\n\n    constructor() ERC721(\"Bito NFT\", \"NFT\"){\n\n    }\n\n    function getTokenCount() public view returns(uint256){\n        return tokenCount;\n    }\n\n    function mintNFT(address _owner, string memory _tokenURI) public returns(uint256){\n        require(_owner != address(0x0));\n\n        tokenCount++;\n\n        _safeMint(_owner, tokenCount);\n        _setTokenURI(tokenCount, _tokenURI);\n        \n\n        return tokenCount;\n    }\n\n    function setApprovalForNFTs(address _owner) public returns(bool){\n        require(_owner != address(0x0));\n        _setApprovalForAll(_owner, msg.sender, true);\n    }\n\n    function tokenTrasferFrom(address _from, address _to, uint256 _tokenId) public returns(bool){\n\n        require(_from != address(0x0), \"address shouldn't be zero\");\n        require(_from != _to, \"seller and buyer is different\");\n        require(isApprovedForAll(_from, msg.sender), \"Ownership required\");\n\n        _transfer(_from, _to, _tokenId);\n        return true;\n    }\n}",
  "sourcePath": "/home/ys/project/BEB_05/26_project_02/beb-05-Bito/contracts/contracts/ERC-721.sol",
  "compiler": {
    "name": "solc",
    "version": "0.8.7+commit.e28d00a7.Emscripten.clang"
  },
  "schemaVersion": "3.4.9",
  "updatedAt": "2022-08-21T07:36:02.652Z",
  "devdoc": {
    "kind": "dev",
    "methods": {
      "approve(address,uint256)": {
        "details": "See {IERC721-approve}."
      },
      "balanceOf(address)": {
        "details": "See {IERC721-balanceOf}."
      },
      "getApproved(uint256)": {
        "details": "See {IERC721-getApproved}."
      },
      "isApprovedForAll(address,address)": {
        "details": "See {IERC721-isApprovedForAll}."
      },
      "name()": {
        "details": "See {IERC721Metadata-name}."
      },
      "ownerOf(uint256)": {
        "details": "See {IERC721-ownerOf}."
      },
      "safeTransferFrom(address,address,uint256)": {
        "details": "See {IERC721-safeTransferFrom}."
      },
      "safeTransferFrom(address,address,uint256,bytes)": {
        "details": "See {IERC721-safeTransferFrom}."
      },
      "setApprovalForAll(address,bool)": {
        "details": "See {IERC721-setApprovalForAll}."
      },
      "supportsInterface(bytes4)": {
        "details": "See {IERC165-supportsInterface}."
      },
      "symbol()": {
        "details": "See {IERC721Metadata-symbol}."
      },
      "tokenURI(uint256)": {
        "details": "See {IERC721Metadata-tokenURI}."
      },
      "transferFrom(address,address,uint256)": {
        "details": "See {IERC721-transferFrom}."
      }
    },
    "version": 1
  },
  "userdoc": {
    "kind": "user",
    "methods": {},
    "version": 1
  }
}