{
  "contractName": "Marketplace",
  "abi": [
    {
      "inputs": [],
      "stateMutability": "nonpayable",
      "type": "constructor"
    },
    {
      "anonymous": false,
      "inputs": [
        {
          "indexed": false,
          "internalType": "int256",
          "name": "itemId",
          "type": "int256"
        },
        {
          "indexed": false,
          "internalType": "string",
          "name": "tokenURI",
          "type": "string"
        },
        {
          "indexed": false,
          "internalType": "int256",
          "name": "price",
          "type": "int256"
        },
        {
          "indexed": true,
          "internalType": "address",
          "name": "seller",
          "type": "address"
        },
        {
          "indexed": true,
          "internalType": "address",
          "name": "buyer",
          "type": "address"
        },
        {
          "indexed": false,
          "internalType": "bool",
          "name": "sold",
          "type": "bool"
        }
      ],
      "name": "NFTBought",
      "type": "event"
    },
    {
      "anonymous": false,
      "inputs": [
        {
          "indexed": false,
          "internalType": "int256",
          "name": "itemId",
          "type": "int256"
        },
        {
          "indexed": false,
          "internalType": "string",
          "name": "tokenURI",
          "type": "string"
        },
        {
          "indexed": false,
          "internalType": "int256",
          "name": "price",
          "type": "int256"
        },
        {
          "indexed": true,
          "internalType": "address",
          "name": "seller",
          "type": "address"
        },
        {
          "indexed": false,
          "internalType": "bool",
          "name": "sold",
          "type": "bool"
        }
      ],
      "name": "NFTOffered",
      "type": "event"
    },
    {
      "anonymous": false,
      "inputs": [
        {
          "indexed": false,
          "internalType": "contract ERC20Token",
          "name": "token",
          "type": "address"
        },
        {
          "indexed": false,
          "internalType": "address",
          "name": "tokenAddress",
          "type": "address"
        },
        {
          "indexed": false,
          "internalType": "bool",
          "name": "result",
          "type": "bool"
        }
      ],
      "name": "Token20Set",
      "type": "event"
    },
    {
      "anonymous": false,
      "inputs": [
        {
          "indexed": false,
          "internalType": "contract ERC721Token",
          "name": "token",
          "type": "address"
        },
        {
          "indexed": false,
          "internalType": "address",
          "name": "tokenAddress",
          "type": "address"
        },
        {
          "indexed": false,
          "internalType": "bool",
          "name": "result",
          "type": "bool"
        }
      ],
      "name": "Token721Set",
      "type": "event"
    },
    {
      "anonymous": false,
      "inputs": [
        {
          "indexed": false,
          "internalType": "address",
          "name": "actor",
          "type": "address"
        },
        {
          "indexed": false,
          "internalType": "uint256",
          "name": "amount",
          "type": "uint256"
        },
        {
          "indexed": false,
          "internalType": "bool",
          "name": "result",
          "type": "bool"
        }
      ],
      "name": "TokenBenefitSuccess",
      "type": "event"
    },
    {
      "inputs": [],
      "name": "itemCount",
      "outputs": [
        {
          "internalType": "uint256",
          "name": "",
          "type": "uint256"
        }
      ],
      "stateMutability": "view",
      "type": "function"
    },
    {
      "inputs": [],
      "name": "token20Name",
      "outputs": [
        {
          "internalType": "string",
          "name": "",
          "type": "string"
        }
      ],
      "stateMutability": "view",
      "type": "function"
    },
    {
      "inputs": [],
      "name": "token20Symbol",
      "outputs": [
        {
          "internalType": "string",
          "name": "",
          "type": "string"
        }
      ],
      "stateMutability": "view",
      "type": "function"
    },
    {
      "inputs": [],
      "name": "token721Name",
      "outputs": [
        {
          "internalType": "string",
          "name": "",
          "type": "string"
        }
      ],
      "stateMutability": "view",
      "type": "function"
    },
    {
      "inputs": [],
      "name": "token721Symbol",
      "outputs": [
        {
          "internalType": "string",
          "name": "",
          "type": "string"
        }
      ],
      "stateMutability": "view",
      "type": "function"
    },
    {
      "inputs": [],
      "name": "tokenCnt",
      "outputs": [
        {
          "internalType": "uint256",
          "name": "",
          "type": "uint256"
        }
      ],
      "stateMutability": "view",
      "type": "function"
    },
    {
      "inputs": [
        {
          "internalType": "address",
          "name": "contractAddress",
          "type": "address"
        }
      ],
      "name": "setERC20Token",
      "outputs": [
        {
          "internalType": "bool",
          "name": "",
          "type": "bool"
        }
      ],
      "stateMutability": "nonpayable",
      "type": "function"
    },
    {
      "inputs": [
        {
          "internalType": "address",
          "name": "contractAddress",
          "type": "address"
        }
      ],
      "name": "setERC721Token",
      "outputs": [
        {
          "internalType": "bool",
          "name": "",
          "type": "bool"
        }
      ],
      "stateMutability": "nonpayable",
      "type": "function"
    },
    {
      "inputs": [
        {
          "internalType": "address",
          "name": "_to",
          "type": "address"
        },
        {
          "internalType": "uint256",
          "name": "_amount",
          "type": "uint256"
        }
      ],
      "name": "ERC20_Transfer_User2User",
      "outputs": [
        {
          "internalType": "bool",
          "name": "",
          "type": "bool"
        }
      ],
      "stateMutability": "payable",
      "type": "function"
    },
    {
      "inputs": [
        {
          "internalType": "int256",
          "name": "_benefit",
          "type": "int256"
        }
      ],
      "name": "ERC20_Provider",
      "outputs": [
        {
          "internalType": "bool",
          "name": "",
          "type": "bool"
        }
      ],
      "stateMutability": "payable",
      "type": "function"
    },
    {
      "inputs": [
        {
          "internalType": "string",
          "name": "_tokenURI",
          "type": "string"
        },
        {
          "internalType": "int256",
          "name": "_price",
          "type": "int256"
        }
      ],
      "name": "createERC721Token",
      "outputs": [
        {
          "internalType": "bool",
          "name": "",
          "type": "bool"
        }
      ],
      "stateMutability": "nonpayable",
      "type": "function"
    },
    {
      "inputs": [],
      "name": "setAllNFTsToContract",
      "outputs": [],
      "stateMutability": "nonpayable",
      "type": "function"
    },
    {
      "inputs": [
        {
          "internalType": "int256",
          "name": "_itemId",
          "type": "int256"
        }
      ],
      "name": "buyERC721Token",
      "outputs": [],
      "stateMutability": "payable",
      "type": "function"
    },
    {
      "inputs": [
        {
          "internalType": "int256",
          "name": "_itemId",
          "type": "int256"
        }
      ],
      "name": "getItemSeller",
      "outputs": [
        {
          "internalType": "address",
          "name": "",
          "type": "address"
        }
      ],
      "stateMutability": "view",
      "type": "function"
    },
    {
      "inputs": [
        {
          "internalType": "address",
          "name": "_address",
          "type": "address"
        }
      ],
      "name": "getBalanceOfERC20",
      "outputs": [
        {
          "internalType": "uint256",
          "name": "",
          "type": "uint256"
        }
      ],
      "stateMutability": "view",
      "type": "function"
    },
    {
      "inputs": [
        {
          "internalType": "uint256",
          "name": "_tokenId",
          "type": "uint256"
        }
      ],
      "name": "getOwnerOfERC721",
      "outputs": [
        {
          "internalType": "address",
          "name": "",
          "type": "address"
        }
      ],
      "stateMutability": "view",
      "type": "function"
    },
    {
      "inputs": [
        {
          "internalType": "address",
          "name": "_owner",
          "type": "address"
        },
        {
          "internalType": "address",
          "name": "_operator",
          "type": "address"
        }
      ],
      "name": "getIsApprovedForAll",
      "outputs": [
        {
          "internalType": "bool",
          "name": "",
          "type": "bool"
        }
      ],
      "stateMutability": "view",
      "type": "function"
    },
    {
      "inputs": [
        {
          "internalType": "int256",
          "name": "_itemId",
          "type": "int256"
        }
      ],
      "name": "getTokenURIERC721",
      "outputs": [
        {
          "internalType": "string",
          "name": "",
          "type": "string"
        }
      ],
      "stateMutability": "view",
      "type": "function"
    }
  ],
  "bytecode": "0x60806040523480156200001157600080fd5b50600160098190555030604051620000299062000404565b620000359190620005b0565b604051809103906000f08015801562000052573d6000803e3d6000fd5b506000806101000a81548173ffffffffffffffffffffffffffffffffffffffff021916908373ffffffffffffffffffffffffffffffffffffffff160217905550604051620000a09062000412565b604051809103906000f080158015620000bd573d6000803e3d6000fd5b50600160006101000a81548173ffffffffffffffffffffffffffffffffffffffff021916908373ffffffffffffffffffffffffffffffffffffffff16021790555060008054906101000a900473ffffffffffffffffffffffffffffffffffffffff1673ffffffffffffffffffffffffffffffffffffffff166306fdde036040518163ffffffff1660e01b815260040160006040518083038186803b1580156200016557600080fd5b505afa1580156200017a573d6000803e3d6000fd5b505050506040513d6000823e3d601f19601f82011682018060405250810190620001a591906200054e565b60049080519060200190620001bc92919062000420565b50600160009054906101000a900473ffffffffffffffffffffffffffffffffffffffff1673ffffffffffffffffffffffffffffffffffffffff166306fdde036040518163ffffffff1660e01b815260040160006040518083038186803b1580156200022657600080fd5b505afa1580156200023b573d6000803e3d6000fd5b505050506040513d6000823e3d601f19601f820116820180604052508101906200026691906200054e565b600590805190602001906200027d92919062000420565b5060008054906101000a900473ffffffffffffffffffffffffffffffffffffffff1673ffffffffffffffffffffffffffffffffffffffff166395d89b416040518163ffffffff1660e01b815260040160006040518083038186803b158015620002e557600080fd5b505afa158015620002fa573d6000803e3d6000fd5b505050506040513d6000823e3d601f19601f820116820180604052508101906200032591906200054e565b600690805190602001906200033c92919062000420565b50600160009054906101000a900473ffffffffffffffffffffffffffffffffffffffff1673ffffffffffffffffffffffffffffffffffffffff166395d89b416040518163ffffffff1660e01b815260040160006040518083038186803b158015620003a657600080fd5b505afa158015620003bb573d6000803e3d6000fd5b505050506040513d6000823e3d601f19601f82011682018060405250810190620003e691906200054e565b60079080519060200190620003fd92919062000420565b5062000785565b611a9a8062002f5383390190565b612ebf80620049ed83390190565b8280546200042e9062000696565b90600052602060002090601f0160209004810192826200045257600085556200049e565b82601f106200046d57805160ff19168380011785556200049e565b828001600101855582156200049e579182015b828111156200049d57825182559160200191906001019062000480565b5b509050620004ad9190620004b1565b5090565b5b80821115620004cc576000816000905550600101620004b2565b5090565b6000620004e7620004e184620005f6565b620005cd565b90508281526020810184848401111562000506576200050562000765565b5b6200051384828562000660565b509392505050565b600082601f83011262000533576200053262000760565b5b815162000545848260208601620004d0565b91505092915050565b6000602082840312156200056757620005666200076f565b5b600082015167ffffffffffffffff8111156200058857620005876200076a565b5b62000596848285016200051b565b91505092915050565b620005aa816200062c565b82525050565b6000602082019050620005c760008301846200059f565b92915050565b6000620005d9620005ec565b9050620005e78282620006cc565b919050565b6000604051905090565b600067ffffffffffffffff82111562000614576200061362000731565b5b6200061f8262000774565b9050602081019050919050565b6000620006398262000640565b9050919050565b600073ffffffffffffffffffffffffffffffffffffffff82169050919050565b60005b838110156200068057808201518184015260208101905062000663565b8381111562000690576000848401525b50505050565b60006002820490506001821680620006af57607f821691505b60208210811415620006c657620006c562000702565b5b50919050565b620006d78262000774565b810181811067ffffffffffffffff82111715620006f957620006f862000731565b5b80604052505050565b7f4e487b7100000000000000000000000000000000000000000000000000000000600052602260045260246000fd5b7f4e487b7100000000000000000000000000000000000000000000000000000000600052604160045260246000fd5b600080fd5b600080fd5b600080fd5b600080fd5b6000601f19601f8301169050919050565b6127be80620007956000396000f3fe6080604052600436106101095760003560e01c80638d75d8e011610095578063b98910c911610064578063b98910c914610380578063d2638bb9146103bd578063d3473318146103fa578063dccd4f3d14610411578063de5624871461044e57610109565b80638d75d8e0146102cf5780639663f6db146102ff578063a7c784371461032a578063b57ddbe11461035557610109565b8063623ee204116100dc578063623ee204146101de5780636bfb0d011461020e578063707c3d8b14610239578063774b47dc14610255578063802871911461029257610109565b80632f935bcd1461010e57806346e3a579146101395780634d5db7df146101645780635a5ba51e146101a1575b600080fd5b34801561011a57600080fd5b5061012361048b565b6040516101309190612106565b60405180910390f35b34801561014557600080fd5b5061014e610519565b60405161015b9190612106565b60405180910390f35b34801561017057600080fd5b5061018b60048036038101906101869190611b83565b6105a7565b6040516101989190612031565b60405180910390f35b3480156101ad57600080fd5b506101c860048036038101906101c39190611d13565b61068a565b6040516101d59190611ee1565b60405180910390f35b6101f860048036038101906101f39190611c1d565b610743565b6040516102059190612031565b60405180910390f35b34801561021a57600080fd5b506102236108d8565b60405161023091906121e8565b60405180910390f35b610253600480360381019061024e9190611c8a565b6108de565b005b34801561026157600080fd5b5061027c60048036038101906102779190611c8a565b610ef6565b6040516102899190612106565b60405180910390f35b34801561029e57600080fd5b506102b960048036038101906102b49190611b83565b610fa4565b6040516102c691906121e8565b60405180910390f35b6102e960048036038101906102e49190611c8a565b611097565b6040516102f69190612031565b60405180910390f35b34801561030b57600080fd5b506103146112ef565b6040516103219190612106565b60405180910390f35b34801561033657600080fd5b5061033f61137d565b60405161034c91906121e8565b60405180910390f35b34801561036157600080fd5b5061036a611383565b6040516103779190612106565b60405180910390f35b34801561038c57600080fd5b506103a760048036038101906103a29190611cb7565b611411565b6040516103b49190612031565b60405180910390f35b3480156103c957600080fd5b506103e460048036038101906103df9190611bdd565b611676565b6040516103f19190612031565b60405180910390f35b34801561040657600080fd5b5061040f611732565b005b34801561041d57600080fd5b5061043860048036038101906104339190611c8a565b6118a0565b6040516104459190611ee1565b60405180910390f35b34801561045a57600080fd5b5061047560048036038101906104709190611b83565b6118e0565b6040516104829190612031565b60405180910390f35b60078054610498906123f7565b80601f01602080910402602001604051908101604052809291908181526020018280546104c4906123f7565b80156105115780601f106104e657610100808354040283529160200191610511565b820191906000526020600020905b8154815290600101906020018083116104f457829003601f168201915b505050505081565b60048054610526906123f7565b80601f0160208091040260200160405190810160405280929190818152602001828054610552906123f7565b801561059f5780601f106105745761010080835404028352916020019161059f565b820191906000526020600020905b81548152906001019060200180831161058257829003601f168201915b505050505081565b60008073ffffffffffffffffffffffffffffffffffffffff168273ffffffffffffffffffffffffffffffffffffffff1614156105e257600080fd5b81600160006101000a81548173ffffffffffffffffffffffffffffffffffffffff021916908373ffffffffffffffffffffffffffffffffffffffff1602179055507f3d3c28ce96e8aee9a067fbd68bed1b30744c3990f268d5cfd701cf015a90a340600160009054906101000a900473ffffffffffffffffffffffffffffffffffffffff1683600160405161067993929190612083565b60405180910390a160019050919050565b600080600160009054906101000a900473ffffffffffffffffffffffffffffffffffffffff1673ffffffffffffffffffffffffffffffffffffffff16636352211e846040518263ffffffff1660e01b81526004016106e891906121e8565b60206040518083038186803b15801561070057600080fd5b505afa158015610714573d6000803e3d6000fd5b505050506040513d601f19601f820116820180604052508101906107389190611bb0565b905080915050919050565b60008073ffffffffffffffffffffffffffffffffffffffff168373ffffffffffffffffffffffffffffffffffffffff16141561077e57600080fd5b60008211801561083657508160008054906101000a900473ffffffffffffffffffffffffffffffffffffffff1673ffffffffffffffffffffffffffffffffffffffff166370a08231336040518263ffffffff1660e01b81526004016107e39190611ee1565b60206040518083038186803b1580156107fb57600080fd5b505afa15801561080f573d6000803e3d6000fd5b505050506040513d601f19601f820116820180604052508101906108339190611d40565b10155b61083f57600080fd5b60008054906101000a900473ffffffffffffffffffffffffffffffffffffffff1673ffffffffffffffffffffffffffffffffffffffff16633a40c5443385856040518463ffffffff1660e01b815260040161089c93929190611f93565b600060405180830381600087803b1580156108b657600080fd5b505af11580156108ca573d6000803e3d6000fd5b505050506001905092915050565b60025481565b6000600a60008381526020019081526020016000206040518060a001604052908160008201548152602001600182018054610918906123f7565b80601f0160208091040260200160405190810160405280929190818152602001828054610944906123f7565b80156109915780601f1061096657610100808354040283529160200191610991565b820191906000526020600020905b81548152906001019060200180831161097457829003601f168201915b50505050508152602001600282015481526020016003820160009054906101000a900473ffffffffffffffffffffffffffffffffffffffff1673ffffffffffffffffffffffffffffffffffffffff1673ffffffffffffffffffffffffffffffffffffffff1681526020016003820160149054906101000a900460ff1615151515815250509050610a20826119c0565b60008054906101000a900473ffffffffffffffffffffffffffffffffffffffff1673ffffffffffffffffffffffffffffffffffffffff166370a08231336040518263ffffffff1660e01b8152600401610a799190611ee1565b60206040518083038186803b158015610a9157600080fd5b505afa158015610aa5573d6000803e3d6000fd5b505050506040513d601f19601f82011682018060405250810190610ac99190611d40565b11610b09576040517f08c379a0000000000000000000000000000000000000000000000000000000008152600401610b0090612188565b60405180910390fd5b806060015173ffffffffffffffffffffffffffffffffffffffff163373ffffffffffffffffffffffffffffffffffffffff161415610b7c576040517f08c379a0000000000000000000000000000000000000000000000000000000008152600401610b7390612148565b60405180910390fd5b600082138015610b8e57506002548213155b610bcd576040517f08c379a0000000000000000000000000000000000000000000000000000000008152600401610bc4906121a8565b60405180910390fd5b600015158160800151151514610c18576040517f08c379a0000000000000000000000000000000000000000000000000000000008152600401610c0f906121c8565b60405180910390fd5b60008054906101000a900473ffffffffffffffffffffffffffffffffffffffff1673ffffffffffffffffffffffffffffffffffffffff16633a40c54433836060015184604001516040518463ffffffff1660e01b8152600401610c7d93929190611f5c565b600060405180830381600087803b158015610c9757600080fd5b505af1158015610cab573d6000803e3d6000fd5b5050505060008054906101000a900473ffffffffffffffffffffffffffffffffffffffff1673ffffffffffffffffffffffffffffffffffffffff16639db5dbe433306009546040518463ffffffff1660e01b8152600401610d0e93929190611f93565b600060405180830381600087803b158015610d2857600080fd5b505af1158015610d3c573d6000803e3d6000fd5b50505050600160009054906101000a900473ffffffffffffffffffffffffffffffffffffffff1673ffffffffffffffffffffffffffffffffffffffff1663ed9acae7826060015133856040518463ffffffff1660e01b8152600401610da393929190611efc565b602060405180830381600087803b158015610dbd57600080fd5b505af1158015610dd1573d6000803e3d6000fd5b505050506040513d601f19601f82011682018060405250810190610df59190611c5d565b506001600a600084815260200190815260200160002060030160146101000a81548160ff02191690831515021790555033600a600084815260200190815260200160002060030160006101000a81548173ffffffffffffffffffffffffffffffffffffffff021916908373ffffffffffffffffffffffffffffffffffffffff1602179055503373ffffffffffffffffffffffffffffffffffffffff16816060015173ffffffffffffffffffffffffffffffffffffffff167f3e1637f5fb2281122db7e7ddb18aea2592ca357a1428e84020d7b112d573f80184846020015185604001516001604051610eea94939291906120ba565b60405180910390a35050565b60606000600a60008481526020019081526020016000206001018054610f1b906123f7565b80601f0160208091040260200160405190810160405280929190818152602001828054610f47906123f7565b8015610f945780601f10610f6957610100808354040283529160200191610f94565b820191906000526020600020905b815481529060010190602001808311610f7757829003601f168201915b5050505050905080915050919050565b6000813373ffffffffffffffffffffffffffffffffffffffff168173ffffffffffffffffffffffffffffffffffffffff1614610fdf57600080fd5b60008060009054906101000a900473ffffffffffffffffffffffffffffffffffffffff1673ffffffffffffffffffffffffffffffffffffffff166370a08231856040518263ffffffff1660e01b815260040161103b9190611ee1565b60206040518083038186803b15801561105357600080fd5b505afa158015611067573d6000803e3d6000fd5b505050506040513d601f19601f8201168201806040525081019061108b9190611d40565b90508092505050919050565b60008073ffffffffffffffffffffffffffffffffffffffff163373ffffffffffffffffffffffffffffffffffffffff1614156110d257600080fd5b60658214156110e857600a600881905550611217565b60c98214156110fe576003600881905550611216565b61012d821415611115576001600881905550611215565b61019182141561121457606460088190555060008060009054906101000a900473ffffffffffffffffffffffffffffffffffffffff1673ffffffffffffffffffffffffffffffffffffffff166370a08231336040518263ffffffff1660e01b81526004016111839190611ee1565b60206040518083038186803b15801561119b57600080fd5b505afa1580156111af573d6000803e3d6000fd5b505050506040513d601f19601f820116820180604052508101906111d39190611d40565b14611213576040517f08c379a000000000000000000000000000000000000000000000000000000000815260040161120a90612128565b60405180910390fd5b5b5b5b5b60008054906101000a900473ffffffffffffffffffffffffffffffffffffffff1673ffffffffffffffffffffffffffffffffffffffff16639db5dbe430336008546040518463ffffffff1660e01b815260040161127693929190611f93565b600060405180830381600087803b15801561129057600080fd5b505af11580156112a4573d6000803e3d6000fd5b505050507fee530a2f29a35e79918ba079ef7327a5be157a72d4795542d290b24060037b093360085460016040516112de93929190611ffa565b60405180910390a160019050919050565b600580546112fc906123f7565b80601f0160208091040260200160405190810160405280929190818152602001828054611328906123f7565b80156113755780601f1061134a57610100808354040283529160200191611375565b820191906000526020600020905b81548152906001019060200180831161135857829003601f168201915b505050505081565b60035481565b60068054611390906123f7565b80601f01602080910402602001604051908101604052809291908181526020018280546113bc906123f7565b80156114095780601f106113de57610100808354040283529160200191611409565b820191906000526020600020905b8154815290600101906020018083116113ec57829003601f168201915b505050505081565b600080821215611456576040517f08c379a000000000000000000000000000000000000000000000000000000000815260040161144d90612168565b60405180910390fd5b60026000815480929190611469906124a3565b9190505550600160009054906101000a900473ffffffffffffffffffffffffffffffffffffffff1673ffffffffffffffffffffffffffffffffffffffff1663eacabe1433856040518363ffffffff1660e01b81526004016114cb929190611fca565b602060405180830381600087803b1580156114e557600080fd5b505af11580156114f9573d6000803e3d6000fd5b505050506040513d601f19601f8201168201806040525081019061151d9190611d40565b6003819055506040518060a0016040528060025481526020018481526020018381526020013373ffffffffffffffffffffffffffffffffffffffff16815260200160011515815250600a600060025481526020019081526020016000206000820151816000015560208201518160010190805190602001906115a09291906119f2565b506040820151816002015560608201518160030160006101000a81548173ffffffffffffffffffffffffffffffffffffffff021916908373ffffffffffffffffffffffffffffffffffffffff16021790555060808201518160030160146101000a81548160ff0219169083151502179055509050503373ffffffffffffffffffffffffffffffffffffffff167f413b1036bb18f046105e9442f1695f8af7c16ac34e0e7f238337efdd0c247c996002548585600160405161166494939291906120ba565b60405180910390a26001905092915050565b600080600160009054906101000a900473ffffffffffffffffffffffffffffffffffffffff1673ffffffffffffffffffffffffffffffffffffffff1663e985e9c585856040518363ffffffff1660e01b81526004016116d6929190611f33565b60206040518083038186803b1580156116ee57600080fd5b505afa158015611702573d6000803e3d6000fd5b505050506040513d601f19601f820116820180604052508101906117269190611c5d565b90508091505092915050565b600160009054906101000a900473ffffffffffffffffffffffffffffffffffffffff1673ffffffffffffffffffffffffffffffffffffffff1663d4843aed336040518263ffffffff1660e01b815260040161178d9190611ee1565b602060405180830381600087803b1580156117a757600080fd5b505af11580156117bb573d6000803e3d6000fd5b505050506040513d601f19601f820116820180604052508101906117df9190611c5d565b506000600190505b600254811361189d573373ffffffffffffffffffffffffffffffffffffffff16600a600083815260200190815260200160002060030160009054906101000a900473ffffffffffffffffffffffffffffffffffffffff1673ffffffffffffffffffffffffffffffffffffffff16141561188a576000600a600083815260200190815260200160002060030160146101000a81548160ff0219169083151502179055505b80806118959061245a565b9150506117e7565b50565b6000600a600083815260200190815260200160002060030160009054906101000a900473ffffffffffffffffffffffffffffffffffffffff169050919050565b60008073ffffffffffffffffffffffffffffffffffffffff168273ffffffffffffffffffffffffffffffffffffffff16141561191b57600080fd5b816000806101000a81548173ffffffffffffffffffffffffffffffffffffffff021916908373ffffffffffffffffffffffffffffffffffffffff1602179055507f0a72bbd7c6353139394335f1d07ef616e9937473f11049fcc9eb41367a22a31460008054906101000a900473ffffffffffffffffffffffffffffffffffffffff168360016040516119af9392919061204c565b60405180910390a160019050919050565b600080600954600a6000858152602001908152602001600020600201546119e79190612275565b905080915050919050565b8280546119fe906123f7565b90600052602060002090601f016020900481019282611a205760008555611a67565b82601f10611a3957805160ff1916838001178555611a67565b82800160010185558215611a67579182015b82811115611a66578251825591602001919060010190611a4b565b5b509050611a749190611a78565b5090565b5b80821115611a91576000816000905550600101611a79565b5090565b6000611aa8611aa384612228565b612203565b905082815260208101848484011115611ac457611ac361257e565b5b611acf8482856123b5565b509392505050565b600081359050611ae68161272c565b92915050565b600081519050611afb8161272c565b92915050565b600081519050611b1081612743565b92915050565b600081359050611b258161275a565b92915050565b600082601f830112611b4057611b3f612579565b5b8135611b50848260208601611a95565b91505092915050565b600081359050611b6881612771565b92915050565b600081519050611b7d81612771565b92915050565b600060208284031215611b9957611b98612588565b5b6000611ba784828501611ad7565b91505092915050565b600060208284031215611bc657611bc5612588565b5b6000611bd484828501611aec565b91505092915050565b60008060408385031215611bf457611bf3612588565b5b6000611c0285828601611ad7565b9250506020611c1385828601611ad7565b9150509250929050565b60008060408385031215611c3457611c33612588565b5b6000611c4285828601611ad7565b9250506020611c5385828601611b59565b9150509250929050565b600060208284031215611c7357611c72612588565b5b6000611c8184828501611b01565b91505092915050565b600060208284031215611ca057611c9f612588565b5b6000611cae84828501611b16565b91505092915050565b60008060408385031215611cce57611ccd612588565b5b600083013567ffffffffffffffff811115611cec57611ceb612583565b5b611cf885828601611b2b565b9250506020611d0985828601611b16565b9150509250929050565b600060208284031215611d2957611d28612588565b5b6000611d3784828501611b59565b91505092915050565b600060208284031215611d5657611d55612588565b5b6000611d6484828501611b6e565b91505092915050565b611d768161235b565b82525050565b611d8581612309565b82525050565b611d948161231b565b82525050565b611da38161236d565b82525050565b611db28161237f565b82525050565b611dc181612327565b82525050565b6000611dd282612259565b611ddc8185612264565b9350611dec8185602086016123c4565b611df58161258d565b840191505092915050565b6000611e0d601883612264565b9150611e188261259e565b602082019050919050565b6000611e30602683612264565b9150611e3b826125c7565b604082019050919050565b6000611e53602183612264565b9150611e5e82612616565b604082019050919050565b6000611e76602583612264565b9150611e8182612665565b604082019050919050565b6000611e99602983612264565b9150611ea4826126b4565b604082019050919050565b6000611ebc601d83612264565b9150611ec782612703565b602082019050919050565b611edb81612351565b82525050565b6000602082019050611ef66000830184611d7c565b92915050565b6000606082019050611f116000830186611d6d565b611f1e6020830185611d7c565b611f2b6040830184611ed2565b949350505050565b6000604082019050611f486000830185611d7c565b611f556020830184611d7c565b9392505050565b6000606082019050611f716000830186611d7c565b611f7e6020830185611d6d565b611f8b6040830184611ed2565b949350505050565b6000606082019050611fa86000830186611d7c565b611fb56020830185611d7c565b611fc26040830184611ed2565b949350505050565b6000604082019050611fdf6000830185611d7c565b8181036020830152611ff18184611dc7565b90509392505050565b600060608201905061200f6000830186611d7c565b61201c6020830185611ed2565b6120296040830184611d8b565b949350505050565b60006020820190506120466000830184611d8b565b92915050565b60006060820190506120616000830186611d9a565b61206e6020830185611d7c565b61207b6040830184611d8b565b949350505050565b60006060820190506120986000830186611da9565b6120a56020830185611d7c565b6120b26040830184611d8b565b949350505050565b60006080820190506120cf6000830187611db8565b81810360208301526120e18186611dc7565b90506120f06040830185611db8565b6120fd6060830184611d8b565b95945050505050565b600060208201905081810360008301526121208184611dc7565b905092915050565b6000602082019050818103600083015261214181611e00565b9050919050565b6000602082019050818103600083015261216181611e23565b9050919050565b6000602082019050818103600083015261218181611e46565b9050919050565b600060208201905081810360008301526121a181611e69565b9050919050565b600060208201905081810360008301526121c181611e8c565b9050919050565b600060208201905081810360008301526121e181611eaf565b9050919050565b60006020820190506121fd6000830184611ed2565b92915050565b600061220d61221e565b90506122198282612429565b919050565b6000604051905090565b600067ffffffffffffffff8211156122435761224261254a565b5b61224c8261258d565b9050602081019050919050565b600081519050919050565b600082825260208201905092915050565b600061228082612327565b915061228b83612327565b9250817f7fffffffffffffffffffffffffffffffffffffffffffffffffffffffffffffff038313600083121516156122c6576122c56124ec565b5b817f80000000000000000000000000000000000000000000000000000000000000000383126000831216156122fe576122fd6124ec565b5b828201905092915050565b600061231482612331565b9050919050565b60008115159050919050565b6000819050919050565b600073ffffffffffffffffffffffffffffffffffffffff82169050919050565b6000819050919050565b600061236682612391565b9050919050565b600061237882612391565b9050919050565b600061238a82612391565b9050919050565b600061239c826123a3565b9050919050565b60006123ae82612331565b9050919050565b82818337600083830152505050565b60005b838110156123e25780820151818401526020810190506123c7565b838111156123f1576000848401525b50505050565b6000600282049050600182168061240f57607f821691505b602082108114156124235761242261251b565b5b50919050565b6124328261258d565b810181811067ffffffffffffffff821117156124515761245061254a565b5b80604052505050565b600061246582612327565b91507f7fffffffffffffffffffffffffffffffffffffffffffffffffffffffffffffff821415612498576124976124ec565b5b600182019050919050565b60006124ae82612351565b91507fffffffffffffffffffffffffffffffffffffffffffffffffffffffffffffffff8214156124e1576124e06124ec565b5b600182019050919050565b7f4e487b7100000000000000000000000000000000000000000000000000000000600052601160045260246000fd5b7f4e487b7100000000000000000000000000000000000000000000000000000000600052602260045260246000fd5b7f4e487b7100000000000000000000000000000000000000000000000000000000600052604160045260246000fd5b600080fd5b600080fd5b600080fd5b600080fd5b6000601f19601f8301169050919050565b7f496e697469616c2050726f766964652052657175697265640000000000000000600082015250565b7f42757965722073686f756c64206e6f74206265207468652073616d6520746f2060008201527f53656c6c65720000000000000000000000000000000000000000000000000000602082015250565b7f50726963652073686f756c642062652067726561746572207468656e207a657260008201527f6f00000000000000000000000000000000000000000000000000000000000000602082015250565b7f42757965722073686f756c642068617665206d6f7265206d6f6e65792074686160008201527f6e204e4654000000000000000000000000000000000000000000000000000000602082015250565b7f42757965722063616e207065726368617365204e46542074686174206973206c60008201527f6973746564206e6f770000000000000000000000000000000000000000000000602082015250565b7f4974656d2073686f756c6420626520496e2d73746f636b207374617465000000600082015250565b61273581612309565b811461274057600080fd5b50565b61274c8161231b565b811461275757600080fd5b50565b61276381612327565b811461276e57600080fd5b50565b61277a81612351565b811461278557600080fd5b5056fea2646970667358221220af3aaed84e7a4d7c876bb0c3fd9896194aea7d442c5f60451ee31e9d06e9a8dd64736f6c6343000807003360806040523480156200001157600080fd5b5060405162001a9a38038062001a9a833981810160405281019062000037919062000342565b6040518060400160405280600a81526020017f4269746f20546f6b656e000000000000000000000000000000000000000000008152506040518060400160405280600381526020017f42545400000000000000000000000000000000000000000000000000000000008152508160039080519060200190620000bb9291906200027b565b508060049080519060200190620000d49291906200027b565b505050620000f181670de0b6b3a7640000620000f860201b60201c565b5062000573565b600073ffffffffffffffffffffffffffffffffffffffff168273ffffffffffffffffffffffffffffffffffffffff1614156200016b576040517f08c379a00000000000000000000000000000000000000000000000000000000081526004016200016290620003ac565b60405180910390fd5b6200017f600083836200027160201b60201c565b8060026000828254620001939190620003fc565b92505081905550806000808473ffffffffffffffffffffffffffffffffffffffff1673ffffffffffffffffffffffffffffffffffffffff1681526020019081526020016000206000828254620001ea9190620003fc565b925050819055508173ffffffffffffffffffffffffffffffffffffffff16600073ffffffffffffffffffffffffffffffffffffffff167fddf252ad1be2c89b69c2b068fc378daa952ba7f163c4a11628f55a4df523b3ef83604051620002519190620003ce565b60405180910390a36200026d600083836200027660201b60201c565b5050565b505050565b505050565b828054620002899062000497565b90600052602060002090601f016020900481019282620002ad5760008555620002f9565b82601f10620002c857805160ff1916838001178555620002f9565b82800160010185558215620002f9579182015b82811115620002f8578251825591602001919060010190620002db565b5b5090506200030891906200030c565b5090565b5b80821115620003275760008160009055506001016200030d565b5090565b6000815190506200033c8162000559565b92915050565b6000602082840312156200035b576200035a6200052b565b5b60006200036b848285016200032b565b91505092915050565b600062000383601f83620003eb565b9150620003908262000530565b602082019050919050565b620003a6816200048d565b82525050565b60006020820190508181036000830152620003c78162000374565b9050919050565b6000602082019050620003e560008301846200039b565b92915050565b600082825260208201905092915050565b600062000409826200048d565b915062000416836200048d565b9250827fffffffffffffffffffffffffffffffffffffffffffffffffffffffffffffffff038211156200044e576200044d620004cd565b5b828201905092915050565b600062000466826200046d565b9050919050565b600073ffffffffffffffffffffffffffffffffffffffff82169050919050565b6000819050919050565b60006002820490506001821680620004b057607f821691505b60208210811415620004c757620004c6620004fc565b5b50919050565b7f4e487b7100000000000000000000000000000000000000000000000000000000600052601160045260246000fd5b7f4e487b7100000000000000000000000000000000000000000000000000000000600052602260045260246000fd5b600080fd5b7f45524332303a206d696e7420746f20746865207a65726f206164647265737300600082015250565b620005648162000459565b81146200057057600080fd5b50565b61151780620005836000396000f3fe6080604052600436106100c25760003560e01c80633a40c5441161007f5780639db5dbe4116100595780639db5dbe414610283578063a457c2d71461029f578063a9059cbb146102dc578063dd62ed3e14610319576100c2565b80633a40c544146101ff57806370a082311461021b57806395d89b4114610258576100c2565b806306fdde03146100c7578063095ea7b3146100f257806318160ddd1461012f57806323b872dd1461015a578063313ce5671461019757806339509351146101c2575b600080fd5b3480156100d357600080fd5b506100dc610356565b6040516100e99190610fd8565b60405180910390f35b3480156100fe57600080fd5b5061011960048036038101906101149190610dcb565b6103e8565b6040516101269190610fbd565b60405180910390f35b34801561013b57600080fd5b5061014461040b565b60405161015191906110da565b60405180910390f35b34801561016657600080fd5b50610181600480360381019061017c9190610d78565b610415565b60405161018e9190610fbd565b60405180910390f35b3480156101a357600080fd5b506101ac610444565b6040516101b991906110f5565b60405180910390f35b3480156101ce57600080fd5b506101e960048036038101906101e49190610dcb565b61044d565b6040516101f69190610fbd565b60405180910390f35b61021960048036038101906102149190610d78565b610484565b005b34801561022757600080fd5b50610242600480360381019061023d9190610d0b565b61059d565b60405161024f91906110da565b60405180910390f35b34801561026457600080fd5b5061026d6105e5565b60405161027a9190610fd8565b60405180910390f35b61029d60048036038101906102989190610d78565b610677565b005b3480156102ab57600080fd5b506102c660048036038101906102c19190610dcb565b6106c1565b6040516102d39190610fbd565b60405180910390f35b3480156102e857600080fd5b5061030360048036038101906102fe9190610dcb565b610738565b6040516103109190610fbd565b60405180910390f35b34801561032557600080fd5b50610340600480360381019061033b9190610d38565b61075b565b60405161034d91906110da565b60405180910390f35b6060600380546103659061120a565b80601f01602080910402602001604051908101604052809291908181526020018280546103919061120a565b80156103de5780601f106103b3576101008083540402835291602001916103de565b820191906000526020600020905b8154815290600101906020018083116103c157829003601f168201915b5050505050905090565b6000806103f36107e2565b90506104008185856107ea565b600191505092915050565b6000600254905090565b6000806104206107e2565b905061042d8582856109b5565b610438858585610a41565b60019150509392505050565b60006012905090565b6000806104586107e2565b905061047981858561046a858961075b565b610474919061112c565b6107ea565b600191505092915050565b600073ffffffffffffffffffffffffffffffffffffffff168373ffffffffffffffffffffffffffffffffffffffff1614156104be57600080fd5b600073ffffffffffffffffffffffffffffffffffffffff168273ffffffffffffffffffffffffffffffffffffffff1614156104f857600080fd5b803073ffffffffffffffffffffffffffffffffffffffff166370a08231856040518263ffffffff1660e01b81526004016105329190610fa2565b60206040518083038186803b15801561054a57600080fd5b505afa15801561055e573d6000803e3d6000fd5b505050506040513d601f19601f820116820180604052508101906105829190610e0b565b101561058d57600080fd5b610598838383610a41565b505050565b60008060008373ffffffffffffffffffffffffffffffffffffffff1673ffffffffffffffffffffffffffffffffffffffff168152602001908152602001600020549050919050565b6060600480546105f49061120a565b80601f01602080910402602001604051908101604052809291908181526020018280546106209061120a565b801561066d5780601f106106425761010080835404028352916020019161066d565b820191906000526020600020905b81548152906001019060200180831161065057829003601f168201915b5050505050905090565b600073ffffffffffffffffffffffffffffffffffffffff168273ffffffffffffffffffffffffffffffffffffffff1614156106b157600080fd5b6106bc838383610a41565b505050565b6000806106cc6107e2565b905060006106da828661075b565b90508381101561071f576040517f08c379a0000000000000000000000000000000000000000000000000000000008152600401610716906110ba565b60405180910390fd5b61072c82868684036107ea565b60019250505092915050565b6000806107436107e2565b9050610750818585610a41565b600191505092915050565b6000600160008473ffffffffffffffffffffffffffffffffffffffff1673ffffffffffffffffffffffffffffffffffffffff16815260200190815260200160002060008373ffffffffffffffffffffffffffffffffffffffff1673ffffffffffffffffffffffffffffffffffffffff16815260200190815260200160002054905092915050565b600033905090565b600073ffffffffffffffffffffffffffffffffffffffff168373ffffffffffffffffffffffffffffffffffffffff16141561085a576040517f08c379a00000000000000000000000000000000000000000000000000000000081526004016108519061109a565b60405180910390fd5b600073ffffffffffffffffffffffffffffffffffffffff168273ffffffffffffffffffffffffffffffffffffffff1614156108ca576040517f08c379a00000000000000000000000000000000000000000000000000000000081526004016108c19061101a565b60405180910390fd5b80600160008573ffffffffffffffffffffffffffffffffffffffff1673ffffffffffffffffffffffffffffffffffffffff16815260200190815260200160002060008473ffffffffffffffffffffffffffffffffffffffff1673ffffffffffffffffffffffffffffffffffffffff168152602001908152602001600020819055508173ffffffffffffffffffffffffffffffffffffffff168373ffffffffffffffffffffffffffffffffffffffff167f8c5be1e5ebec7d5bd14f71427d1e84f3dd0314c0f7b2291e5b200ac8c7c3b925836040516109a891906110da565b60405180910390a3505050565b60006109c1848461075b565b90507fffffffffffffffffffffffffffffffffffffffffffffffffffffffffffffffff8114610a3b5781811015610a2d576040517f08c379a0000000000000000000000000000000000000000000000000000000008152600401610a249061103a565b60405180910390fd5b610a3a84848484036107ea565b5b50505050565b600073ffffffffffffffffffffffffffffffffffffffff168373ffffffffffffffffffffffffffffffffffffffff161415610ab1576040517f08c379a0000000000000000000000000000000000000000000000000000000008152600401610aa89061107a565b60405180910390fd5b600073ffffffffffffffffffffffffffffffffffffffff168273ffffffffffffffffffffffffffffffffffffffff161415610b21576040517f08c379a0000000000000000000000000000000000000000000000000000000008152600401610b1890610ffa565b60405180910390fd5b610b2c838383610cc2565b60008060008573ffffffffffffffffffffffffffffffffffffffff1673ffffffffffffffffffffffffffffffffffffffff16815260200190815260200160002054905081811015610bb2576040517f08c379a0000000000000000000000000000000000000000000000000000000008152600401610ba99061105a565b60405180910390fd5b8181036000808673ffffffffffffffffffffffffffffffffffffffff1673ffffffffffffffffffffffffffffffffffffffff16815260200190815260200160002081905550816000808573ffffffffffffffffffffffffffffffffffffffff1673ffffffffffffffffffffffffffffffffffffffff1681526020019081526020016000206000828254610c45919061112c565b925050819055508273ffffffffffffffffffffffffffffffffffffffff168473ffffffffffffffffffffffffffffffffffffffff167fddf252ad1be2c89b69c2b068fc378daa952ba7f163c4a11628f55a4df523b3ef84604051610ca991906110da565b60405180910390a3610cbc848484610cc7565b50505050565b505050565b505050565b600081359050610cdb816114b3565b92915050565b600081359050610cf0816114ca565b92915050565b600081519050610d05816114ca565b92915050565b600060208284031215610d2157610d2061129a565b5b6000610d2f84828501610ccc565b91505092915050565b60008060408385031215610d4f57610d4e61129a565b5b6000610d5d85828601610ccc565b9250506020610d6e85828601610ccc565b9150509250929050565b600080600060608486031215610d9157610d9061129a565b5b6000610d9f86828701610ccc565b9350506020610db086828701610ccc565b9250506040610dc186828701610ce1565b9150509250925092565b60008060408385031215610de257610de161129a565b5b6000610df085828601610ccc565b9250506020610e0185828601610ce1565b9150509250929050565b600060208284031215610e2157610e2061129a565b5b6000610e2f84828501610cf6565b91505092915050565b610e4181611182565b82525050565b610e5081611194565b82525050565b6000610e6182611110565b610e6b818561111b565b9350610e7b8185602086016111d7565b610e848161129f565b840191505092915050565b6000610e9c60238361111b565b9150610ea7826112b0565b604082019050919050565b6000610ebf60228361111b565b9150610eca826112ff565b604082019050919050565b6000610ee2601d8361111b565b9150610eed8261134e565b602082019050919050565b6000610f0560268361111b565b9150610f1082611377565b604082019050919050565b6000610f2860258361111b565b9150610f33826113c6565b604082019050919050565b6000610f4b60248361111b565b9150610f5682611415565b604082019050919050565b6000610f6e60258361111b565b9150610f7982611464565b604082019050919050565b610f8d816111c0565b82525050565b610f9c816111ca565b82525050565b6000602082019050610fb76000830184610e38565b92915050565b6000602082019050610fd26000830184610e47565b92915050565b60006020820190508181036000830152610ff28184610e56565b905092915050565b6000602082019050818103600083015261101381610e8f565b9050919050565b6000602082019050818103600083015261103381610eb2565b9050919050565b6000602082019050818103600083015261105381610ed5565b9050919050565b6000602082019050818103600083015261107381610ef8565b9050919050565b6000602082019050818103600083015261109381610f1b565b9050919050565b600060208201905081810360008301526110b381610f3e565b9050919050565b600060208201905081810360008301526110d381610f61565b9050919050565b60006020820190506110ef6000830184610f84565b92915050565b600060208201905061110a6000830184610f93565b92915050565b600081519050919050565b600082825260208201905092915050565b6000611137826111c0565b9150611142836111c0565b9250827fffffffffffffffffffffffffffffffffffffffffffffffffffffffffffffffff038211156111775761117661123c565b5b828201905092915050565b600061118d826111a0565b9050919050565b60008115159050919050565b600073ffffffffffffffffffffffffffffffffffffffff82169050919050565b6000819050919050565b600060ff82169050919050565b60005b838110156111f55780820151818401526020810190506111da565b83811115611204576000848401525b50505050565b6000600282049050600182168061122257607f821691505b602082108114156112365761123561126b565b5b50919050565b7f4e487b7100000000000000000000000000000000000000000000000000000000600052601160045260246000fd5b7f4e487b7100000000000000000000000000000000000000000000000000000000600052602260045260246000fd5b600080fd5b6000601f19601f8301169050919050565b7f45524332303a207472616e7366657220746f20746865207a65726f206164647260008201527f6573730000000000000000000000000000000000000000000000000000000000602082015250565b7f45524332303a20617070726f766520746f20746865207a65726f20616464726560008201527f7373000000000000000000000000000000000000000000000000000000000000602082015250565b7f45524332303a20696e73756666696369656e7420616c6c6f77616e6365000000600082015250565b7f45524332303a207472616e7366657220616d6f756e742065786365656473206260008201527f616c616e63650000000000000000000000000000000000000000000000000000602082015250565b7f45524332303a207472616e736665722066726f6d20746865207a65726f20616460008201527f6472657373000000000000000000000000000000000000000000000000000000602082015250565b7f45524332303a20617070726f76652066726f6d20746865207a65726f2061646460008201527f7265737300000000000000000000000000000000000000000000000000000000602082015250565b7f45524332303a2064656372656173656420616c6c6f77616e63652062656c6f7760008201527f207a65726f000000000000000000000000000000000000000000000000000000602082015250565b6114bc81611182565b81146114c757600080fd5b50565b6114d3816111c0565b81146114de57600080fd5b5056fea2646970667358221220da530932d477b37acf1b53c0a534af52e7f8a40631449a7cc6b2465da7e9ce0164736f6c6343000807003360806040523480156200001157600080fd5b506040518060400160405280600881526020017f4269746f204e46540000000000000000000000000000000000000000000000008152506040518060400160405280600381526020017f4e46540000000000000000000000000000000000000000000000000000000000815250816000908051906020019062000096929190620000b8565b508060019080519060200190620000af929190620000b8565b505050620001cd565b828054620000c69062000168565b90600052602060002090601f016020900481019282620000ea576000855562000136565b82601f106200010557805160ff191683800117855562000136565b8280016001018555821562000136579182015b828111156200013557825182559160200191906001019062000118565b5b50905062000145919062000149565b5090565b5b80821115620001645760008160009055506001016200014a565b5090565b600060028204905060018216806200018157607f821691505b602082108114156200019857620001976200019e565b5b50919050565b7f4e487b7100000000000000000000000000000000000000000000000000000000600052602260045260246000fd5b612ce280620001dd6000396000f3fe608060405234801561001057600080fd5b50600436106101165760003560e01c806395d89b41116100a2578063c87b56dd11610071578063c87b56dd146102df578063d4843aed1461030f578063e985e9c51461033f578063eacabe141461036f578063ed9acae71461039f57610116565b806395d89b411461026b5780639f181b5e14610289578063a22cb465146102a7578063b88d4fde146102c357610116565b806323b872dd116100e957806323b872dd146101b557806342842e0e146101d15780636352211e146101ed57806370a082311461021d57806378a895671461024d57610116565b806301ffc9a71461011b57806306fdde031461014b578063081812fc14610169578063095ea7b314610199575b600080fd5b61013560048036038101906101309190611e6a565b6103cf565b6040516101429190612259565b60405180910390f35b6101536104b1565b6040516101609190612274565b60405180910390f35b610183600480360381019061017e9190611ec4565b610543565b60405161019091906121f2565b60405180910390f35b6101b360048036038101906101ae9190611e2a565b610589565b005b6101cf60048036038101906101ca9190611cb8565b6106a1565b005b6101eb60048036038101906101e69190611cb8565b610701565b005b61020760048036038101906102029190611ec4565b610721565b60405161021491906121f2565b60405180910390f35b61023760048036038101906102329190611c4b565b6107d3565b6040516102449190612476565b60405180910390f35b61025561088b565b6040516102629190612476565b60405180910390f35b610273610895565b6040516102809190612274565b60405180910390f35b610291610927565b60405161029e9190612476565b60405180910390f35b6102c160048036038101906102bc9190611d8e565b61092d565b005b6102dd60048036038101906102d89190611d0b565b610943565b005b6102f960048036038101906102f49190611ec4565b6109a5565b6040516103069190612274565b60405180910390f35b61032960048036038101906103249190611c4b565b610ab8565b6040516103369190612259565b60405180910390f35b61035960048036038101906103549190611c78565b610b04565b6040516103669190612259565b60405180910390f35b61038960048036038101906103849190611dce565b610b98565b6040516103969190612476565b60405180910390f35b6103b960048036038101906103b49190611cb8565b610c0e565b6040516103c69190612259565b60405180910390f35b60007f80ac58cd000000000000000000000000000000000000000000000000000000007bffffffffffffffffffffffffffffffffffffffffffffffffffffffff1916827bffffffffffffffffffffffffffffffffffffffffffffffffffffffff1916148061049a57507f5b5e139f000000000000000000000000000000000000000000000000000000007bffffffffffffffffffffffffffffffffffffffffffffffffffffffff1916827bffffffffffffffffffffffffffffffffffffffffffffffffffffffff1916145b806104aa57506104a982610d4d565b5b9050919050565b6060600080546104c0906126cc565b80601f01602080910402602001604051908101604052809291908181526020018280546104ec906126cc565b80156105395780601f1061050e57610100808354040283529160200191610539565b820191906000526020600020905b81548152906001019060200180831161051c57829003601f168201915b5050505050905090565b600061054e82610db7565b6004600083815260200190815260200160002060009054906101000a900473ffffffffffffffffffffffffffffffffffffffff169050919050565b600061059482610721565b90508073ffffffffffffffffffffffffffffffffffffffff168373ffffffffffffffffffffffffffffffffffffffff161415610605576040517f08c379a00000000000000000000000000000000000000000000000000000000081526004016105fc90612416565b60405180910390fd5b8073ffffffffffffffffffffffffffffffffffffffff16610624610e02565b73ffffffffffffffffffffffffffffffffffffffff16148061065357506106528161064d610e02565b610b04565b5b610692576040517f08c379a000000000000000000000000000000000000000000000000000000000815260040161068990612396565b60405180910390fd5b61069c8383610e0a565b505050565b6106b26106ac610e02565b82610ec3565b6106f1576040517f08c379a00000000000000000000000000000000000000000000000000000000081526004016106e890612456565b60405180910390fd5b6106fc838383610f58565b505050565b61071c83838360405180602001604052806000815250610943565b505050565b6000806002600084815260200190815260200160002060009054906101000a900473ffffffffffffffffffffffffffffffffffffffff169050600073ffffffffffffffffffffffffffffffffffffffff168173ffffffffffffffffffffffffffffffffffffffff1614156107ca576040517f08c379a00000000000000000000000000000000000000000000000000000000081526004016107c1906123f6565b60405180910390fd5b80915050919050565b60008073ffffffffffffffffffffffffffffffffffffffff168273ffffffffffffffffffffffffffffffffffffffff161415610844576040517f08c379a000000000000000000000000000000000000000000000000000000000815260040161083b90612336565b60405180910390fd5b600360008373ffffffffffffffffffffffffffffffffffffffff1673ffffffffffffffffffffffffffffffffffffffff168152602001908152602001600020549050919050565b6000600754905090565b6060600180546108a4906126cc565b80601f01602080910402602001604051908101604052809291908181526020018280546108d0906126cc565b801561091d5780601f106108f25761010080835404028352916020019161091d565b820191906000526020600020905b81548152906001019060200180831161090057829003601f168201915b5050505050905090565b60075481565b61093f610938610e02565b83836111bf565b5050565b61095461094e610e02565b83610ec3565b610993576040517f08c379a000000000000000000000000000000000000000000000000000000000815260040161098a90612456565b60405180910390fd5b61099f8484848461132c565b50505050565b60606109b082610db7565b60006006600084815260200190815260200160002080546109d0906126cc565b80601f01602080910402602001604051908101604052809291908181526020018280546109fc906126cc565b8015610a495780601f10610a1e57610100808354040283529160200191610a49565b820191906000526020600020905b815481529060010190602001808311610a2c57829003601f168201915b505050505090506000610a5a611388565b9050600081511415610a70578192505050610ab3565b600082511115610aa5578082604051602001610a8d9291906121ce565b60405160208183030381529060405292505050610ab3565b610aae8461139f565b925050505b919050565b60008073ffffffffffffffffffffffffffffffffffffffff168273ffffffffffffffffffffffffffffffffffffffff161415610af357600080fd5b610aff823360016111bf565b919050565b6000600560008473ffffffffffffffffffffffffffffffffffffffff1673ffffffffffffffffffffffffffffffffffffffff16815260200190815260200160002060008373ffffffffffffffffffffffffffffffffffffffff1673ffffffffffffffffffffffffffffffffffffffff16815260200190815260200160002060009054906101000a900460ff16905092915050565b60008073ffffffffffffffffffffffffffffffffffffffff168373ffffffffffffffffffffffffffffffffffffffff161415610bd357600080fd5b60076000815480929190610be69061272f565b9190505550610bf783600754611407565b610c0360075483611425565b600754905092915050565b60008073ffffffffffffffffffffffffffffffffffffffff168473ffffffffffffffffffffffffffffffffffffffff161415610c7f576040517f08c379a0000000000000000000000000000000000000000000000000000000008152600401610c7690612356565b60405180910390fd5b8273ffffffffffffffffffffffffffffffffffffffff168473ffffffffffffffffffffffffffffffffffffffff161415610cee576040517f08c379a0000000000000000000000000000000000000000000000000000000008152600401610ce590612436565b60405180910390fd5b610cf88433610b04565b610d37576040517f08c379a0000000000000000000000000000000000000000000000000000000008152600401610d2e906123d6565b60405180910390fd5b610d42848484610f58565b600190509392505050565b60007f01ffc9a7000000000000000000000000000000000000000000000000000000007bffffffffffffffffffffffffffffffffffffffffffffffffffffffff1916827bffffffffffffffffffffffffffffffffffffffffffffffffffffffff1916149050919050565b610dc081611499565b610dff576040517f08c379a0000000000000000000000000000000000000000000000000000000008152600401610df6906123f6565b60405180910390fd5b50565b600033905090565b816004600083815260200190815260200160002060006101000a81548173ffffffffffffffffffffffffffffffffffffffff021916908373ffffffffffffffffffffffffffffffffffffffff160217905550808273ffffffffffffffffffffffffffffffffffffffff16610e7d83610721565b73ffffffffffffffffffffffffffffffffffffffff167f8c5be1e5ebec7d5bd14f71427d1e84f3dd0314c0f7b2291e5b200ac8c7c3b92560405160405180910390a45050565b600080610ecf83610721565b90508073ffffffffffffffffffffffffffffffffffffffff168473ffffffffffffffffffffffffffffffffffffffff161480610f115750610f108185610b04565b5b80610f4f57508373ffffffffffffffffffffffffffffffffffffffff16610f3784610543565b73ffffffffffffffffffffffffffffffffffffffff16145b91505092915050565b8273ffffffffffffffffffffffffffffffffffffffff16610f7882610721565b73ffffffffffffffffffffffffffffffffffffffff1614610fce576040517f08c379a0000000000000000000000000000000000000000000000000000000008152600401610fc5906122b6565b60405180910390fd5b600073ffffffffffffffffffffffffffffffffffffffff168273ffffffffffffffffffffffffffffffffffffffff16141561103e576040517f08c379a0000000000000000000000000000000000000000000000000000000008152600401611035906122f6565b60405180910390fd5b611049838383611505565b611054600082610e0a565b6001600360008573ffffffffffffffffffffffffffffffffffffffff1673ffffffffffffffffffffffffffffffffffffffff16815260200190815260200160002060008282546110a491906125e2565b925050819055506001600360008473ffffffffffffffffffffffffffffffffffffffff1673ffffffffffffffffffffffffffffffffffffffff16815260200190815260200160002060008282546110fb919061255b565b92505081905550816002600083815260200190815260200160002060006101000a81548173ffffffffffffffffffffffffffffffffffffffff021916908373ffffffffffffffffffffffffffffffffffffffff160217905550808273ffffffffffffffffffffffffffffffffffffffff168473ffffffffffffffffffffffffffffffffffffffff167fddf252ad1be2c89b69c2b068fc378daa952ba7f163c4a11628f55a4df523b3ef60405160405180910390a46111ba83838361150a565b505050565b8173ffffffffffffffffffffffffffffffffffffffff168373ffffffffffffffffffffffffffffffffffffffff16141561122e576040517f08c379a000000000000000000000000000000000000000000000000000000000815260040161122590612316565b60405180910390fd5b80600560008573ffffffffffffffffffffffffffffffffffffffff1673ffffffffffffffffffffffffffffffffffffffff16815260200190815260200160002060008473ffffffffffffffffffffffffffffffffffffffff1673ffffffffffffffffffffffffffffffffffffffff16815260200190815260200160002060006101000a81548160ff0219169083151502179055508173ffffffffffffffffffffffffffffffffffffffff168373ffffffffffffffffffffffffffffffffffffffff167f17307eab39ab6107e8899845ad3d59bd9653f200f220920489ca2b5937696c318360405161131f9190612259565b60405180910390a3505050565b611337848484610f58565b6113438484848461150f565b611382576040517f08c379a000000000000000000000000000000000000000000000000000000000815260040161137990612296565b60405180910390fd5b50505050565b606060405180602001604052806000815250905090565b60606113aa82610db7565b60006113b4611388565b905060008151116113d457604051806020016040528060008152506113ff565b806113de846116a6565b6040516020016113ef9291906121ce565b6040516020818303038152906040525b915050919050565b611421828260405180602001604052806000815250611807565b5050565b61142e82611499565b61146d576040517f08c379a000000000000000000000000000000000000000000000000000000000815260040161146490612376565b60405180910390fd5b80600660008481526020019081526020016000209080519060200190611494929190611a5f565b505050565b60008073ffffffffffffffffffffffffffffffffffffffff166002600084815260200190815260200160002060009054906101000a900473ffffffffffffffffffffffffffffffffffffffff1673ffffffffffffffffffffffffffffffffffffffff1614159050919050565b505050565b505050565b60006115308473ffffffffffffffffffffffffffffffffffffffff16611862565b15611699578373ffffffffffffffffffffffffffffffffffffffff1663150b7a02611559610e02565b8786866040518563ffffffff1660e01b815260040161157b949392919061220d565b602060405180830381600087803b15801561159557600080fd5b505af19250505080156115c657506040513d601f19601f820116820180604052508101906115c39190611e97565b60015b611649573d80600081146115f6576040519150601f19603f3d011682016040523d82523d6000602084013e6115fb565b606091505b50600081511415611641576040517f08c379a000000000000000000000000000000000000000000000000000000000815260040161163890612296565b60405180910390fd5b805181602001fd5b63150b7a0260e01b7bffffffffffffffffffffffffffffffffffffffffffffffffffffffff1916817bffffffffffffffffffffffffffffffffffffffffffffffffffffffff19161491505061169e565b600190505b949350505050565b606060008214156116ee576040518060400160405280600181526020017f30000000000000000000000000000000000000000000000000000000000000008152509050611802565b600082905060005b600082146117205780806117099061272f565b915050600a8261171991906125b1565b91506116f6565b60008167ffffffffffffffff81111561173c5761173b612865565b5b6040519080825280601f01601f19166020018201604052801561176e5781602001600182028036833780820191505090505b5090505b600085146117fb5760018261178791906125e2565b9150600a856117969190612778565b60306117a2919061255b565b60f81b8183815181106117b8576117b7612836565b5b60200101907effffffffffffffffffffffffffffffffffffffffffffffffffffffffffffff1916908160001a905350600a856117f491906125b1565b9450611772565b8093505050505b919050565b6118118383611885565b61181e600084848461150f565b61185d576040517f08c379a000000000000000000000000000000000000000000000000000000000815260040161185490612296565b60405180910390fd5b505050565b6000808273ffffffffffffffffffffffffffffffffffffffff163b119050919050565b600073ffffffffffffffffffffffffffffffffffffffff168273ffffffffffffffffffffffffffffffffffffffff1614156118f5576040517f08c379a00000000000000000000000000000000000000000000000000000000081526004016118ec906123b6565b60405180910390fd5b6118fe81611499565b1561193e576040517f08c379a0000000000000000000000000000000000000000000000000000000008152600401611935906122d6565b60405180910390fd5b61194a60008383611505565b6001600360008473ffffffffffffffffffffffffffffffffffffffff1673ffffffffffffffffffffffffffffffffffffffff168152602001908152602001600020600082825461199a919061255b565b92505081905550816002600083815260200190815260200160002060006101000a81548173ffffffffffffffffffffffffffffffffffffffff021916908373ffffffffffffffffffffffffffffffffffffffff160217905550808273ffffffffffffffffffffffffffffffffffffffff16600073ffffffffffffffffffffffffffffffffffffffff167fddf252ad1be2c89b69c2b068fc378daa952ba7f163c4a11628f55a4df523b3ef60405160405180910390a4611a5b6000838361150a565b5050565b828054611a6b906126cc565b90600052602060002090601f016020900481019282611a8d5760008555611ad4565b82601f10611aa657805160ff1916838001178555611ad4565b82800160010185558215611ad4579182015b82811115611ad3578251825591602001919060010190611ab8565b5b509050611ae19190611ae5565b5090565b5b80821115611afe576000816000905550600101611ae6565b5090565b6000611b15611b10846124b6565b612491565b905082815260208101848484011115611b3157611b30612899565b5b611b3c84828561268a565b509392505050565b6000611b57611b52846124e7565b612491565b905082815260208101848484011115611b7357611b72612899565b5b611b7e84828561268a565b509392505050565b600081359050611b9581612c50565b92915050565b600081359050611baa81612c67565b92915050565b600081359050611bbf81612c7e565b92915050565b600081519050611bd481612c7e565b92915050565b600082601f830112611bef57611bee612894565b5b8135611bff848260208601611b02565b91505092915050565b600082601f830112611c1d57611c1c612894565b5b8135611c2d848260208601611b44565b91505092915050565b600081359050611c4581612c95565b92915050565b600060208284031215611c6157611c606128a3565b5b6000611c6f84828501611b86565b91505092915050565b60008060408385031215611c8f57611c8e6128a3565b5b6000611c9d85828601611b86565b9250506020611cae85828601611b86565b9150509250929050565b600080600060608486031215611cd157611cd06128a3565b5b6000611cdf86828701611b86565b9350506020611cf086828701611b86565b9250506040611d0186828701611c36565b9150509250925092565b60008060008060808587031215611d2557611d246128a3565b5b6000611d3387828801611b86565b9450506020611d4487828801611b86565b9350506040611d5587828801611c36565b925050606085013567ffffffffffffffff811115611d7657611d7561289e565b5b611d8287828801611bda565b91505092959194509250565b60008060408385031215611da557611da46128a3565b5b6000611db385828601611b86565b9250506020611dc485828601611b9b565b9150509250929050565b60008060408385031215611de557611de46128a3565b5b6000611df385828601611b86565b925050602083013567ffffffffffffffff811115611e1457611e1361289e565b5b611e2085828601611c08565b9150509250929050565b60008060408385031215611e4157611e406128a3565b5b6000611e4f85828601611b86565b9250506020611e6085828601611c36565b9150509250929050565b600060208284031215611e8057611e7f6128a3565b5b6000611e8e84828501611bb0565b91505092915050565b600060208284031215611ead57611eac6128a3565b5b6000611ebb84828501611bc5565b91505092915050565b600060208284031215611eda57611ed96128a3565b5b6000611ee884828501611c36565b91505092915050565b611efa81612616565b82525050565b611f0981612628565b82525050565b6000611f1a82612518565b611f24818561252e565b9350611f34818560208601612699565b611f3d816128a8565b840191505092915050565b6000611f5382612523565b611f5d818561253f565b9350611f6d818560208601612699565b611f76816128a8565b840191505092915050565b6000611f8c82612523565b611f968185612550565b9350611fa6818560208601612699565b80840191505092915050565b6000611fbf60328361253f565b9150611fca826128b9565b604082019050919050565b6000611fe260258361253f565b9150611fed82612908565b604082019050919050565b6000612005601c8361253f565b915061201082612957565b602082019050919050565b600061202860248361253f565b915061203382612980565b604082019050919050565b600061204b60198361253f565b9150612056826129cf565b602082019050919050565b600061206e60298361253f565b9150612079826129f8565b604082019050919050565b600061209160198361253f565b915061209c82612a47565b602082019050919050565b60006120b4602e8361253f565b91506120bf82612a70565b604082019050919050565b60006120d7603e8361253f565b91506120e282612abf565b604082019050919050565b60006120fa60208361253f565b915061210582612b0e565b602082019050919050565b600061211d60128361253f565b915061212882612b37565b602082019050919050565b600061214060188361253f565b915061214b82612b60565b602082019050919050565b600061216360218361253f565b915061216e82612b89565b604082019050919050565b6000612186601d8361253f565b915061219182612bd8565b602082019050919050565b60006121a9602e8361253f565b91506121b482612c01565b604082019050919050565b6121c881612680565b82525050565b60006121da8285611f81565b91506121e68284611f81565b91508190509392505050565b60006020820190506122076000830184611ef1565b92915050565b60006080820190506122226000830187611ef1565b61222f6020830186611ef1565b61223c60408301856121bf565b818103606083015261224e8184611f0f565b905095945050505050565b600060208201905061226e6000830184611f00565b92915050565b6000602082019050818103600083015261228e8184611f48565b905092915050565b600060208201905081810360008301526122af81611fb2565b9050919050565b600060208201905081810360008301526122cf81611fd5565b9050919050565b600060208201905081810360008301526122ef81611ff8565b9050919050565b6000602082019050818103600083015261230f8161201b565b9050919050565b6000602082019050818103600083015261232f8161203e565b9050919050565b6000602082019050818103600083015261234f81612061565b9050919050565b6000602082019050818103600083015261236f81612084565b9050919050565b6000602082019050818103600083015261238f816120a7565b9050919050565b600060208201905081810360008301526123af816120ca565b9050919050565b600060208201905081810360008301526123cf816120ed565b9050919050565b600060208201905081810360008301526123ef81612110565b9050919050565b6000602082019050818103600083015261240f81612133565b9050919050565b6000602082019050818103600083015261242f81612156565b9050919050565b6000602082019050818103600083015261244f81612179565b9050919050565b6000602082019050818103600083015261246f8161219c565b9050919050565b600060208201905061248b60008301846121bf565b92915050565b600061249b6124ac565b90506124a782826126fe565b919050565b6000604051905090565b600067ffffffffffffffff8211156124d1576124d0612865565b5b6124da826128a8565b9050602081019050919050565b600067ffffffffffffffff82111561250257612501612865565b5b61250b826128a8565b9050602081019050919050565b600081519050919050565b600081519050919050565b600082825260208201905092915050565b600082825260208201905092915050565b600081905092915050565b600061256682612680565b915061257183612680565b9250827fffffffffffffffffffffffffffffffffffffffffffffffffffffffffffffffff038211156125a6576125a56127a9565b5b828201905092915050565b60006125bc82612680565b91506125c783612680565b9250826125d7576125d66127d8565b5b828204905092915050565b60006125ed82612680565b91506125f883612680565b92508282101561260b5761260a6127a9565b5b828203905092915050565b600061262182612660565b9050919050565b60008115159050919050565b60007fffffffff0000000000000000000000000000000000000000000000000000000082169050919050565b600073ffffffffffffffffffffffffffffffffffffffff82169050919050565b6000819050919050565b82818337600083830152505050565b60005b838110156126b757808201518184015260208101905061269c565b838111156126c6576000848401525b50505050565b600060028204905060018216806126e457607f821691505b602082108114156126f8576126f7612807565b5b50919050565b612707826128a8565b810181811067ffffffffffffffff8211171561272657612725612865565b5b80604052505050565b600061273a82612680565b91507fffffffffffffffffffffffffffffffffffffffffffffffffffffffffffffffff82141561276d5761276c6127a9565b5b600182019050919050565b600061278382612680565b915061278e83612680565b92508261279e5761279d6127d8565b5b828206905092915050565b7f4e487b7100000000000000000000000000000000000000000000000000000000600052601160045260246000fd5b7f4e487b7100000000000000000000000000000000000000000000000000000000600052601260045260246000fd5b7f4e487b7100000000000000000000000000000000000000000000000000000000600052602260045260246000fd5b7f4e487b7100000000000000000000000000000000000000000000000000000000600052603260045260246000fd5b7f4e487b7100000000000000000000000000000000000000000000000000000000600052604160045260246000fd5b600080fd5b600080fd5b600080fd5b600080fd5b6000601f19601f8301169050919050565b7f4552433732313a207472616e7366657220746f206e6f6e20455243373231526560008201527f63656976657220696d706c656d656e7465720000000000000000000000000000602082015250565b7f4552433732313a207472616e736665722066726f6d20696e636f72726563742060008201527f6f776e6572000000000000000000000000000000000000000000000000000000602082015250565b7f4552433732313a20746f6b656e20616c7265616479206d696e74656400000000600082015250565b7f4552433732313a207472616e7366657220746f20746865207a65726f2061646460008201527f7265737300000000000000000000000000000000000000000000000000000000602082015250565b7f4552433732313a20617070726f766520746f2063616c6c657200000000000000600082015250565b7f4552433732313a2061646472657373207a65726f206973206e6f74206120766160008201527f6c6964206f776e65720000000000000000000000000000000000000000000000602082015250565b7f616464726573732073686f756c646e2774206265207a65726f00000000000000600082015250565b7f45524337323155524953746f726167653a2055524920736574206f66206e6f6e60008201527f6578697374656e7420746f6b656e000000000000000000000000000000000000602082015250565b7f4552433732313a20617070726f76652063616c6c6572206973206e6f7420746f60008201527f6b656e206f776e6572206e6f7220617070726f76656420666f7220616c6c0000602082015250565b7f4552433732313a206d696e7420746f20746865207a65726f2061646472657373600082015250565b7f4f776e6572736869702072657175697265640000000000000000000000000000600082015250565b7f4552433732313a20696e76616c696420746f6b656e2049440000000000000000600082015250565b7f4552433732313a20617070726f76616c20746f2063757272656e74206f776e6560008201527f7200000000000000000000000000000000000000000000000000000000000000602082015250565b7f73656c6c657220616e6420627579657220697320646966666572656e74000000600082015250565b7f4552433732313a2063616c6c6572206973206e6f7420746f6b656e206f776e6560008201527f72206e6f7220617070726f766564000000000000000000000000000000000000602082015250565b612c5981612616565b8114612c6457600080fd5b50565b612c7081612628565b8114612c7b57600080fd5b50565b612c8781612634565b8114612c9257600080fd5b50565b612c9e81612680565b8114612ca957600080fd5b5056fea264697066735822122059b18050ce201df3cdbd15bfda6a15922b5da373714e64c3e779eb6c4ef1d4aa64736f6c63430008070033",
  "immutableReferences": {},
  "source": "// SPDX-License-Identifier: GPL-3.0\npragma solidity ^0.8.7;\n\nimport \"./ERC-20.sol\";\nimport \"./ERC-721.sol\";\nimport \"@openzeppelin/contracts/token/ERC20/IERC20.sol\";\n\ncontract Marketplace{\n    /*\n        1. ERC20, ERC721  \n        2. ERC20 \n        3. ERC20   \n        4. NFT \n    */\n\n    //  \n    ERC20Token token20;\n    ERC721Token token721;\n    uint256 public itemCount;\n    uint256 public tokenCnt;\n    string public token20Name;\n    string public token721Name;\n    string public token20Symbol;\n    string public token721Symbol;\n    uint256 private tokenBenefit;\n    int fee;\n\n\n    constructor(){\n        fee = 1;\n        token20 = new ERC20Token(address(this));\n        token721 = new ERC721Token();\n        token20Name = token20.name();\n        token721Name = token721.name();\n        token20Symbol = token20.symbol();\n        token721Symbol = token721.symbol();\n    }\n\n    /*\n     * @ dev : Marketplace  NFTs\n     * @ Desc : Marketplace  NFTs\n    */\n    struct NFT_List{\n        int itemId;\n        string tokenURI;\n        int price;\n        address payable seller;\n        bool sold;\n    }\n\n    mapping(int => NFT_List) items;\n\n    modifier onlyOwner(address _address){\n        require(_address == msg.sender);\n        _;\n    }\n\n    event Token20Set(\n        ERC20Token token,\n        address tokenAddress,\n        bool result\n    );\n\n    event Token721Set(\n        ERC721Token token,\n        address tokenAddress,\n        bool result\n    );\n    \n    event TokenBenefitSuccess(\n        address actor,\n        uint amount,\n        bool result\n    );\n\n    event NFTOffered(\n        int itemId,\n        string tokenURI,\n        int price,\n        address indexed seller,\n        bool sold\n    );\n\n    event NFTBought(\n        int itemId,\n        string tokenURI,\n        int price,\n        address indexed seller,\n        address indexed buyer,\n        bool sold\n    );\n\n    /*\n     * @ dev : ERC-20 \n     * @ Desc : Marketplace  ERC20     \n    */\n    function setERC20Token(address contractAddress) public returns(bool){\n        require(contractAddress != address(0x0));\n        token20 = ERC20Token(contractAddress);\n\n        emit Token20Set(token20, contractAddress, true);\n\n        return true;\n    }\n    \n    /*\n     * @ dev : ERC-721 \n     * @ Desc : Marketplace  ERC721     \n    */\n    function setERC721Token(address contractAddress) public returns(bool){\n        require(contractAddress != address(0x0));\n        token721 = ERC721Token(contractAddress);\n\n        emit Token721Set(token721, contractAddress, true);\n        return true;\n    }\n\n    /*\n     * @ dev : ERC-20  \n     * @ Desc :  ERC20    .         \n                  .\n    */\n    function ERC20_Transfer_User2User(address _to, uint256 _amount) public payable returns(bool){\n        require(_to != address(0x0));\n        require(_amount > 0 && token20.balanceOf(msg.sender) >= _amount);\n\n        token20.exchangeERC20(msg.sender, _to, _amount);\n\n        return true;\n    }\n\n    /*\n     * @ dev : ERC-20  \n     * @ Desc :   , NFT      action   \n     *              . \n     * @ Requirements : \n     *                  1. _benefit == 101 :    (10 Token)\n     *                  2. _benefit == 201 :    (3 Token)\n     *                  3. _benefit == 301 :    (1 Token)\n     *                  4. _benefit == 401 :    (100 Token)\n    */\n\n    function ERC20_Provider(int _benefit) public payable returns(bool){\n        require(msg.sender != address(0x0));\n\n        if(_benefit == 101){\n            tokenBenefit = 10;\n        }else if(_benefit == 201){\n            tokenBenefit = 3;\n        }else if(_benefit == 301){\n            tokenBenefit = 1;\n        }else if (_benefit == 401){\n            tokenBenefit = 100;\n            require(token20.balanceOf(msg.sender) == 0, \"Initial Provide Required\");\n        }\n\n        token20.transferERC20(address(this), msg.sender, tokenBenefit);\n        \n        emit TokenBenefitSuccess(msg.sender, tokenBenefit, true);\n        return true;\n    }\n\n    /*\n     * @ dev : ERC-721 Item Creation\n     * @ Desc :    ERC20  NFT   .\n     * @ Requirements : \n            - Node.js setApproveForAll()  , Marketplace  \n            - NFT  createERC721Token()  Marketplace  NFT  \n    */\n    function createERC721Token(string memory _tokenURI, int _price) public returns(bool){\n        require(_price >= 0, \"Price should be greater then zero\");\n\n        // item 1 \n        itemCount++;\n\n        // ERC721  \n        tokenCnt = token721.mintNFT(msg.sender, _tokenURI);\n\n        // NFT \n        items[int(itemCount)] = NFT_List(int(itemCount), _tokenURI, _price, payable(msg.sender), true);\n\n        // NFT   \n        emit NFTOffered(int(itemCount), _tokenURI, _price, msg.sender, true);\n\n        return true;\n    }\n\n    /*\n     * @ dev : ERC-721  \n     * @ Desc :    ERC721     .\n    */\n\n    function setAllNFTsToContract() external{\n        token721.setApprovalForNFTs(msg.sender);\n\n        // seller    .\n        for(int i=1; i<=int(itemCount); i++){\n            if(items[i].seller == payable(msg.sender)){\n                items[i].sold = false;\n            }\n        }\n    }\n\n   \n    /*\n     * @ dev : ERC-721 \n     * @ Desc :    ERC20  NFT   .\n    */\n\n    function buyERC721Token(int _itemId) external payable {\n        NFT_List memory item = items[_itemId];\n\n        require(token20.balanceOf(msg.sender) > getTotalPrice(_itemId), \"Buyer should have more money than NFT\");\n        require(msg.sender != item.seller, \"Buyer should not be the same to Seller\"); \n        require(_itemId > 0 && _itemId <= int(itemCount), \"Buyer can perchase NFT that is listed now\" );\n        require(item.sold == false, \"Item should be In-stock state\");\n\n        // 1.   fee     .\n        // 2.   ERC20  seller \n        token20.exchangeERC20(msg.sender, item.seller, uint256(item.price));\n        // 3. Marketplace  Fee .\n        token20.transferERC20(msg.sender, address(this), uint256(fee));\n        // 4. NFT Token   \n        token721.tokenTrasferFrom(item.seller, msg.sender, uint256(_itemId));\n        // 5. NFT sold-out\n        items[_itemId].sold = true;\n        // 7. NFT seller(owner) \n        items[_itemId].seller = payable(msg.sender);\n        // 6.    \n        emit NFTBought(_itemId, item.tokenURI, item.price, item.seller, msg.sender, true);\n        \n    }\n\n    function getItemSeller(int _itemId) external view returns(address){\n        return items[_itemId].seller;\n    }\n\n    \n    /*\n     * @ dev : NFT Item Total Price\n     * @ Desc : fee NFT   NFT    \n    */\n    function getTotalPrice(int _itemId) private returns(uint256){\n        uint256 totalPrice = uint256(items[_itemId].price + fee);\n\n        return totalPrice;\n    }\n\n    /*\n     * @ dev : ERC20 \n     * @ Desc :   ERC20    .\n    */\n    function getBalanceOfERC20(address _address) public view onlyOwner(_address) returns(uint256){\n        uint256 _balanceOf = token20.balanceOf(_address);\n\n        return _balanceOf;\n    }\n\n    /*\n     * @ dev : ERC721 \n     * @ Desc :  NFT    .\n    */\n    function getOwnerOfERC721(uint256 _tokenId) public view returns(address){\n        address _ownerOf = token721.ownerOf(_tokenId);\n\n        return _ownerOf;\n    }\n\n    /*\n     * @ dev : ERC721   \n     * @ Desc :  NFT    .\n    */\n    function getIsApprovedForAll(address _owner, address _operator) public view returns(bool){\n        bool isApproved = token721.isApprovedForAll(_owner, _operator);\n        return isApproved;\n    }\n\n    /*\n     * @ dev : ERC721 tokenURI \n     * @ Desc :  NFT  tokenURI   .\n    */\n    function getTokenURIERC721(int _itemId) public view returns(string memory){\n        string memory _tokenURI = items[_itemId].tokenURI;\n        return _tokenURI;\n    }\n\n}",
  "sourcePath": "/Users/kb-mac/00_workspace/block_chain/incentive_community/beb-05-Bito/contracts/contracts/Marketplace.sol",
  "compiler": {
    "name": "solc",
    "version": "0.8.7+commit.e28d00a7.Emscripten.clang"
  },
  "schemaVersion": "3.4.9",
  "updatedAt": "2022-08-29T14:15:40.878Z",
  "devdoc": {
    "kind": "dev",
    "methods": {},
    "version": 1
  },
  "userdoc": {
    "kind": "user",
    "methods": {},
    "version": 1
  }
}